:04186F000000002253
:0F176C0000000075080B7509BED509FDD508FAF8
:01177B00224B
:10177C00EF1FAC0670011E4C600512176C80F12235
:10178C00EF1FAC0670011E4C600512186F80F12221
:070B6E008105008200FFFF7A
:07184D00E47800F208F2222A
:10112B00E47857F27805F212187B120C047857EF1B
:10113B00F2E47802F27811741EF212167ED2AF78B6
:10114B0057E2B401097802741FF27F6880257F2C67
:10115B007E0112177C1208561217D87857E2B40288
:10116B00031209317809E2FF08E2780FCFF208EF9A
:06117B00F27F0A12175B6F
:01118100224B
:1002A5007856EFF21217D87802E2FFD3940A50037A
:1002B5000203C37856E264017040EFB40B1A1218BA
:1002C500207812EFF2BF0F04E4F280057812E20401
:1002D500F27812E2FF1216497802E2B415031214FD
:1002E5008F7802E2641F60030204DF7808E2C3949A
:1002F5000440030204DFE204F2227856E26402704D
:10030500427802E2B40B1A1218207812EFF2700547
:10031500740FF280057812E214F27812E2FF1216D9
:10032500497802E2B415031214BD7802E2641F6035
:10033500030204DF7808E2D3940050030204DFE2ED
:1003450014F2227856E2B4031B7802E2B41504E4F1
:100355007805F27802E2641F70030204DFE4FF12FD
:10036500175B80557856E2640460030204DF780267
:10037500E2B40B031209317802E2B415227811E2D6
:10038500D39400401278057401F2E47803F208F280
:100395001217367F018005E47805F2FF12175B78A6
:1003A50002E2B41F05121583800C7802E2B4290914
:1003B5001217AC12169802112BE47802F222785625
:1003C500E2B40B1078027415F2E47805F212187B8A
:1003D5007F66806A7856E2B40C061200030204DCDC
:1003E5007856E2B40D101218207812EFF2780274E4
:1003F5000BF27F6580487856E2B40E0AB2037F059A
:1004050012175B0204DC7856E2B416087F04121753
:100415005B0217237856E2B421047F0180087856E1
:10042500E2B42C0DE4FF1218157809EEF208EFF28C
:10043500227856E2B4220A78027429F27F670217FD
:100445005B7856E2B401197F0412175B7806E2FF68
:10045500C3940F40030204DFEF04FF12118280777B
:100465007856E2B402167F0412175B7806E2FFD3D2
:1004750094004066EF14FF121182805B7856E264A7
:10048500037028780BE2FF60517807E2B50704E4B2
:10049500F280057807E204F27807E2FF1215617829
:1004A5000FEEF208EFF21212FC802C7856E264048B
:1004B5007028780BE2FF60227807E27004EFF28083
:1004C500057807E214F27807E2FF121561780FEE5E
:0B04D500F208EFF21212FC12184D2288
:100E8E00121834802D30051712182A7816EFF27FBB
:100E9E000212175B78147403F20874E8F2C205129A
:100EAE0018627855EFF27805E2B4020B7855E2B489
:100EBE002CD312112B80CE7805E2B4011D7811E2ED
:100ECE00C39401501578057402F212187B1217ACF8
:100EDE00C297C296C291C29080AB7855E2FF60A5D0
:050EEE001202A580A026
:03000B000209FFE8
:1009FF00C0E0C0F0C083C082C0D075D000C000C0BE
:0D0A0F0001C002C003C004C005C006C0073E
:100A1C0012001E7839EFF27800E2FE08E2FFC39470
:100A2C00D0EE940F500BE22401F218E23400F28065
:100A3C0010BE0F0DBFD00A12142C780074FFF208F0
:100A4C00F21200267805E2C39402504F121268503D
:100A5C000280487839E2FF640A6024EFC394645042
:100A6C003A781408E22401FFF218E23400FEF2C3D3
:100A7C00EF94D0EE940740237F0A12175B801C3052
:100A8C000319781408E22401FFF218E23400FEF294
:100A9C00C3EF94D0EE94074002D205758A66758C2C
:030AAC00FCC28DFC
:100AAF00D007D006D005D004D003D002D001D0009B
:0B0ABF00D0D0D082D083D0F0D0E03245
:03001B000213408D
:10134000C0E0C0D075D000C000C006C0077805E27C
:10135000B40122780308E22401FFF218E23400FE0F
:10136000F2C3EF94B8EE940B400B7811E214F278CC
:1013700003E4F208F2D007D006D000D0D0D0E0329B
:041873000000000071
:100B7500810800810605C184C103820921FC810722
:040B850000810B00E0
:0713F900785BEEF208EFF251
:10140000087C007DFE7BFF7A1879737E007F0212D4
:1014100005B0785BE2FE08E2FF7BFE7A00795D12A0
:0B1420001074785DE2FE08E2FDEDFFB5
:01142B00229E
:04156100785AEFF2D3
:10156500E275F002A42402FFE5F03406FE1213F939
:0D1575007809EEF208EFF2785AE27807F2FA
:011582002246
:10142C00E4FFFE1216B17806E2FDE4FFFE1215BFD2
:10143C007807E2FD7F037E001215BF3004047D01A6
:10144C0080093003047D0080027D027F047E00024F
:02145C0015BFBA
:07185400785EEFF27F022233
:1016C9007F017E06121613EFB4FF037F0022EF5449
:0616D9001C1313543FFF37
:0116DF0022E8
:101583007F007E061216B17808E2FF12185478081D
:0E159300E225E025E04FFD7F017E060215BF38
:0C17F200780BEFF2FD7F007E060215BFB1
:0A1015007859EFF208ECF208EDF252
:10101F00785E7C007DFE7BFF7A1879757E007F02FB
:10102F001205B0785AE2FC08E2FDEC785EF208EDAA
:10103F00F27859E275F002A42402FFE5F03406FEBF
:10104F00785CF208EFF208E2FD1215BF7F047E0014
:10105F0012177C785DE22401FF18E23400FE785FFE
:05106F00E2FD0215BFC7
:100C04007F017E061216137858EFF27F047E0012DD
:100C140016137859EFF218E2FEB4FF07E47808F2ED
:100C24007F0122EE541C1313543F7808F2E4FFFEB4
:100C34001216137806EFF2D3940F40047F0180025A
:100C44007F007806E2C3940050047E0180027E0097
:100C5400EE4F600578067405F27859E2FF139204AA
:100C6400EF30E103C38001D392037F007E061216A6
:100C740013780BEFF2F46003E270037F02227F0328
:0E0C84007E001216137807EFF21215617F0042
:010C9200223F
:1016980078067405F2E47808F2D204C203FFFE1259
:0916A80016B17F007E060216B1A6
:0D000E00E4F5C7F5C5F5C675C380F5C4223D
:1016B10075C78075F50C75C5038FC4EEF5C375C686
:0816C1005A75C6A50002000ED7
:1016130075C78075F50C75C5018FC4EEF5C375C626
:0A1623005A75C6A500AFC212000EF2
:01162D00229A
:10107400785FEEF208EFF208EBF208EAF208E9F220
:1010840075C78075F50C75C501E408F27864E2FF54
:10109400C3940350357860E22FFF18E23400AD07A3
:1010A400FC8DC4F5C375C65A75C6A500007861E207
:1010B400FB08E2FA08E2F908E2F582758300E5C26A
:0D10C4001205D67864E204F280C202000E2C
:1015BF0075C78075F50C75C5028FC4EEF5C3AF0501
:0C15CF008FC275C65A75C6A50002000E3A
:09183400E4F5CAF5C975BA902269
:07185B007F0A7E0002178CDA
:0F17BC00D2CCD2CD12185BC2CC12185BC2CD2298
:0C17FE00C2CCD2CD12185BD2CC02185B1A
:10179C00EF24FF92CC12185BD2CD12185BC2CD2273
:1016F700D2CC12185BD2CD12185BA2CC9202C2CD0B
:05170700A202E433FF23
:01170C0022BA
:041380007863EFF2AD
:10138400087408F27864E2FF14F2EF601E18E23089
:10139400E704D2CC8002C2CC12185BD2CD12185B07
:1013A400C2CD7863E2FF25E0F280D91216F7EF246C
:0813B400FF9201A201E433FFE6
:0113BC00220E
:0413BD007861EFF272
:1013C100087408F2E408F2D2CC7862E2FF14F2EF7A
:1013D100601A08E2FF25E0F2D2CD12185B30CC058D
:1013E1007863E204F2C2CD12185B80DD7861E2FF1E
:0713F10012179C7863E2FF74
:0113F80022D2
:100B89005C0072C0F9A4B0999282F880907F888342
:100B9900C6A1868E8CC1CE9189C712C8ABF7BF4D4D
:100BA9000065407924301912027800107FC78982C4
:100BB9000F21FC82140000811306811600811200A6
:0C0BC90081111EC186820D1F40810C00AE
:0D17CB0053913C4392C3E4F5B175B2FF2287
:10162E00ED4C600A74652FF582E434008008747204
:0B163E002FF582E43400F583E0FF226A
:10153D007845E4300406F20874158004F208741638
:10154D00F208E4F20874FFF2FB7A00FD7C007F17CD
:04155D0012065F22F1
:07077500783AEEF208EFF202
:10077C004E701B7845F2087410F208E4F20874FF0E
:10078C00F27B107A007D107C007F10020852783AC0
:10079C00E2FA08E2FB7C277D10FFAE0212060A7813
:1007AC003EEFF27C277D10AF03AE0212060A7E03E9
:1007BC007FE8CFCDCFCECCCE12060A783DEFF278C3
:1007CC003AE2FA08E2FB7C037DE8FFAE0212060A6D
:1007DC007E007F64CFCDCFCECCCE12060A783CEF14
:1007EC00F27C007D64AF03AE0212060A7E007F0A23
:1007FC00CFCDCFCECCCE12060A783FEFF218E2C3A3
:10080C009401502018E2FD7C0018E2FB7A00783F3E
:10081C00E2FF7845E4F208EFF208E4F2087403F220
:10082C007F648022783EE2FF18E2FD7C0018E2FB38
:10083C007A00783FE2F5827845E4F208E582F20826
:09084C00E4F2087403F212065FE5
:010855002280
:100EF3007809E2FC08E2FD780FE2FE08E2FFB5059F
:100F030006EEB50402804630061F7810E22401F293
:100F130018E23400F2D308E2943018E2942A40260F
:100F23007421F20874FCF2801D7810E224FFF21899
:100F3300E234FFF2C308E294FC18E29421500774F0
:100F43002AF2087430F2780FE2FE08E2FF12077506
:010F5300227B
:101515007806E2FF75F00A84FD7C00EF75F00A8419
:10152500E5F0FB7A007845E4F20874FFF208E4F28E
:081535000874FFF2FF02065FDB
:100FB5007816E2FF75F06484FEEF75F06484E5F061
:100FC50075F00A84783BF27816E275F00A84783A6F
:100FD500E5F0F2EE601BFD7C0008E2FB7A0018E20A
:100FE500FF7845E4F208EFF208E4F20874FFF280B6
:100FF5001A783BE2FB7A0018E2FF7845E4F208EF45
:0F100500F208E4F20874FFF2FD7C00FF12065FB0
:0110140022B9
:10145E007812E2FF75F00A84A9F0EF75F06484E566
:10146E00F075F00A84FB7A00AF017845E4F208EFDC
:10147E00F208E4F20874FFF27D197C007F17020671
:01148E005FFE
:100F54007811E2FF75F06484FEEF75F06484E5F0C7
:100F640075F00A84783BF27811E275F00A84783AD5
:100F7400E5F0F2EE601BFD7C0008E2FB7A0018E26B
:100F8400FF7845E4F208EFF208E4F20874FFF28017
:100F94001A783BE2FB7A0018E2FF7845E4F208EFA6
:100FA400F208E4F20874FFF2FD7C007F1612065F7B
:010FB400221A
:1015DB007845E4F208741BF208E4F20874FFF27B1E
:0C15EB001B7A007D1A7C007F1A02065F4C
:1014EB007808E2FF75F00A84FEEF75F00A84AFF01E
:1014FB00EEFB7A007845E4F208EFF208E4F20874A8
:0A150B00FFF2FD7C007F0C02065F7A
:1016E000E47845F208F208F20874FFF27B187A00F9
:0716F000FD7C00FF02065F14
:101664007845E4F208741AF208E4F20874FFF27B95
:0A1674001A7A00FD7C00FF02065FF9
:1015A100A203E4FF337845CFF208EFF208E4F20832
:0E15B10074FFF2FB7A00FD7C007F1702065FDC
:1015F7007845E4F208741BF208E4F20874FFF27B02
:0C1607001B7A007D1B7C007F1B02065F2D
:100DAB00A907E97016D37854E29DEC6480F5F0182E
:100DBB00E2648095F04002D322C322E9B40116D33A
:100DCB007854E29BEA6480F5F018E2648095F04079
:100DDB0002D322C322E9B4021C7853E2FE08E2FFDD
:100DEB00C37850E29FEE6480F5F018E2648095F0D2
:100DFB00500122C322E9B4031C7853E2FE08E2FF40
:100E0B00C37852E29FEE6480F5F018E2648095F0AF
:070E1B00500122C322C32293
:10065F007840EFF208ECF208EDF208EAF208EBF25C
:10066F007849741CF2780CE2FF7840E2FD7C0008B8
:10067F00E2FA08E2FB08E2F58308E2F582784FE53B
:10068F0083F208E582F27845E2F58308E2F5827895
:10069F0051E583F208E582F27849E2F5827853E476
:1006AF00F208E582F2120DAB400E780CE204F2D3A1
:1006BF00940340B1E4F280ADC297C296C291C2904A
:1006CF001217CB780CE2701F7840E2FF7848E26493
:1006DF0001700218E27005FC7D0180047C007D0032
:1006EF0012162E8FB0D297780CE2B4012078410801
:1006FF00E2FF7848E26402700218E27005FC7D01A7
:10070F0080047C007D0012162E8FB0D296780CE2FA
:10071F00B40220784308E2FF7848E26403700218BD
:10072F00E27005FC7D0180047C007D0012162E8F87
:10073F00B0D291780CE2B40320784508E2FF7848F4
:10074F00E26404700218E27005FC7D0180047C00F5
:10075F007D0012162E8FB0D290780CE204F2D39453
:05076F00034002E4F26A
:010774002262
:100E22007813E2B40A03120EF37813E27003121677
:100E3200647813E2B401031216E07813E2B40203F9
:100E4200120FB57813E2B4030312153D7813E2B41E
:100E520004031215157813E2B405031215A17813D1
:100E6200E2B406031215F77813E2B4650312145EB6
:100E72007813E2B46603120F547813E2B4670312D4
:0C0E820015DB7813E2B468031214EB22B5
:080003007F0312175BB2042217
:0D17D800200409780D741FF2087440F222FD
:101268002004087813E2D394644005120E228039D2
:10127800D3780EE2940A18E294004010120E2278F5
:101288000EE224FFF218E234FFF2801D780EE264C9
:1012980005700218E26010780DE4F2087405F2C2D5
:0B12A80097C296C291C290D322C322CD
:10175B00E47814F208F27813E26F60047813EFF276
:01176B00225B
:05001E007813E2FF224F
:10148F007811E2FFC394145006E22405F2801AEF9C
:10149F00C3943C50087811E2240AF2800CEFC394F5
:0E14AF00E650067811E22414F27F6602175B05
:1014BD007811E2FFD3943C4006E224ECF2801AEF5F
:1014CD00D3941440087811E224F6F2800CEFC39403
:0E14DD000540067811E224FBF27F6602175BE1
:10170D00759850438E01538EFB75D7FE75D6FF43EA
:06171D008E1053A23F22D2
:08183D008F993099FDC2992238
:06186900AE0712183D223B
:0300230002180AB6
:0B180A00309902C299309802C2983257
:04187700000000006D
:0A0BD500C187861700000000000031
:1010D100F208EFF2EE4440FE18F2FC08EFF2FD7F59
:0110E100020C
:0A10E200785EEFF208ECF208EDF280
:1010EC00087C007DFE7BFF7A1879777E007F0212E8
:1010FC0005B0785FE2FC08E2FDEC08F2ED08F212B4
:10110C0017BC7F22121380785EE2FF121380786185
:0F111C00E2FF1213807862E2FF1213800217FEC7
:0411D000785EEFF264
:1011D400087C007DFE7BFF7A1879797E007F0212FD
:1011E40005B01217BC7F22121380785EE2FF12133F
:1011F400801217BC7F23121380E4FF1213BD785FA3
:10120400EFF27F011213BD7860EFF21217FE785FE0
:07121400E2FE08E2FDEDFF20
:01121B0022B0
:100C9300EF1460141460241460342403704C781728
:100CA3007421F20874FC801B7817741DF20874B069
:100CB300F2087423F208748CF2802F7817741DF2F3
:100CC3000874B0F208742AF2087430F2801CEB78CE
:100CD3001760087419F208746480067413F20874B8
:100CE30088F208741DF20874B0F2ED1460131460F6
:100CF3001914601F24037023781BE4F208740AF2AA
:100D030022781BE4F2087414F222781BE4F20874CC
:0C0D130005F222781BE4F2087402F222C0
:10121C00781CE2700218E260267817E2FC08E2FD06
:10122C004C601C781AE2700218E270028011D3ED47
:10123C009FEC9E500AC3781AE29F18E29E5004E479
:10124C00FEFF227817E2FC08E2FDC3EF9DFFEE9C47
:0C125C00FE781BE2FC08E2FD12060A22EC
:1012B300781CE2700218E2603B7818E2700218E2D0
:1012C3006032781AE2700218E270028027781BE21B
:1012D300FC08E2FD1205F87817E2FC08E2FD2FFF97
:1012E300EC3EFEC3781AE29F18E29E4007D3ED9FBF
:0812F300EC9E4004E4FEFF2222
:0112FB0022D0
:10085600E47858F208F208745FF208741AF2121675
:10086600C9785CEFF2121854785DEFF27D037C00D4
:100876007F021210E27F327E0012177C7D057CC05B
:100886007F021210E27F327E0012177C785DE2FD55
:10089600FF7858E2F208E24FF2785CE2B404167888
:1008A60058E2F208E2440CF208E25402F208E4F2DA
:1008B600FB7F03801B785CE2FD75F004A4FF78588B
:1008C600E245F0F208E24FF2AF05785DE2FD7B010A
:1008D600120C937809E2FE08E2FF12121CEF78066A
:1008E600C333CE33CED8F9FF7858E24EFE08E24F36
:1008F600FF18EEF208EFF24410FF18EEF2FC08EFD4
:10090600F2FD7F031210E27806E2FF7488FCEF44E2
:10091600A0FD7F051210E2E4FDFC7F061210E278CE
:0B0926005AE2FC08E2FD7F070210E22D
:0D17E5007F0A1211D0EE5403FE1212B3223F
:1012FC0012121C7859EEF208EFF27F031211D0ADE6
:10130C00077C00ED543FFD7859E25403FE08E27867
:10131C0006C333CE33CED8F9FFEC4EFCED4F441060
:10132C00FD7F031210E27F0A1211D0EE30E6F77F38
:04133C000A02175B2F
:091820007F051211D0EE540FFFF8
:01182900229C
:041649007857EFF2ED
:10164D007F051211D0AD07AC06EC54F0FC7857E2D3
:07165D004CFC7F050210E2C6
:040ACA007859EFF276
:100ACE007F031211D0785AEEF208EFF254EFFF18AE
:100ADE00EEF2FC08EFF2FD7F031210E27F0212111C
:100AEE00D0785AEEF208EFF27859E2B4010608E235
:100AFE0044028005785AE254FDF208E2F2785AE296
:100B0E004401F208E2F230000A18E2F208E2547FE1
:100B1E00F28009785AE2F208E24480F2785AE2FC56
:100B2E0008E2FD7F021210E27F0A1211D0EE20E6DB
:100B3E00097F0A7E0012177C80EE1217E5785CEEB4
:100B4E00F208EFF27F021211D0785AEEF208EFF2AD
:0F0B5E00EE54FEFE181210D1785CE2FE08E2FFA2
:010B6D002265
:0B181500EF24FF9206D200120ACA2244
:071845007F0B1211D0EE131E
:01184C002279
:10093100E47858F27817E2FE08E2FF780FEEF2FE53
:1009410008EFF2FF7809EEF208EFF2D2067F0A1201
:10095100175B7817E2FE08E2FF1212FC7F327E007D
:1009610012177C1215837819E2FE08E2FFC3780A98
:10097100E29F18E29E5042C2007F01120ACA780922
:10098100EEF208EFF27FF47E0112177C7F0A12115A
:10099100D0EE20E524121845501A7FF47E0112177B
:1009A1007C7858E2FF7809E2FC08E2FD1210157824
:1009B10058E204F21217D880AD7858E27011FF1294
:1009C10017F2E47809F208F27807F2780BF222784C
:1009D10058E2D394004003E214F27858E2FF121770
:1009E100F2E47807F2FF1215617809EEF208EFF2EE
:0D09F100780FEEF208EFF21212FC12142C37
:0109FE0022D6
:041182007857EFF2B9
:10118600D3940F4003740FF220070D7F021211D083
:101196007858EE1210D1D2077F051211D07858EE8A
:1011A600F208EFF254F0FF18EEF208EFF27857E289
:1011B600540FFDEF4DFF08EEF2FC08EFF2FD7F0540
:0911C6001210E27857E27806F2FB
:0111CF0022FD
:101723007F021211D0EE54BFFEC207AD07FC7F0249
:031733000210E2BF
:09182A007F0B1211D0EEC313FF75
:011833002292
:1017AC007F021211D0AC06EF54FEFD7F020210E254
:100BDF008138009820000000000000000000000095
:100BEF0000000000000000000000000000821E0155
:040BFF0090811D00C4
:061862007838E2FFE4F219
:01186800225D
:1017490053B2C353B1C3C297C296C291C29075B086
:02175900FF226D
:10002600E4FF121749FDED14600E14600F14601002
:1000360024037015A2B3800AA2B28006A2B480027D
:10004600A2B5E433783AF28005783A7401F2783A48
:10005600E26069ED75F006A42422F8E2604FE4F24E
:10006600ED75F006A42424F8E2600EE4F2ED75F0D6
:1000760006A42425F8E4F28028ED75F006A42420D1
:10008600F8E2FA08E2FBD39414EA94004013D3EBA7
:1000960094E8EA9403500A781DE27005ED04783876
:1000A600F2ED75F006A42423F8E4F27F01ED75F075
:1000B60006A42420F8E4F208F202015CED75F006CD
:1000C600A42422F8E2703304F2ED75F006A424208D
:1000D600F8E4F208F2ED75F006A42424F8E4F278C8
:1000E6001DE26016ED75F006A42425F8E2700BED0E
:1000F60075F006A42424F87401F2ED75F006A42424
:1001060021F9C3E394FF19E394FF5012ED75F0064D
:10011600A42420F808E22401F218E23400F2ED7576
:10012600F006A42421F9D3E394E819E394034026C6
:10013600ED75F006A42423F8E2701B781DE2701614
:10014600ED04FE75F00AA42E7838F2ED75F006A4DB
:100156002423F87401F20DED6404600302002CEF11
:100166006039E4781DF20804F2087490F2E4FFFDA9
:10017600ED75F006A42424F8E2600D7401A80508C4
:100186008002C333D8FC4FFF0DEDB404E3EF600BE0
:10019600781DF2087401F2087490F2E4FFFEFDED9A
:1001A60075F006A42422F8E2600E7401A805088002
:1001B60002C333D8FC4FFF0E0DEDB404E2EEC39438
:1001C600025003020299781DE2700CEFF2087401E6
:1001D600F2087490F28016C3781FE294FF18E29436
:1001E600FF500A08E22401F218E23400F2D3781F25
:1001F600E2940818E2940250030202A4E4F9FCFD1A
:1002060074017E00A805088005C333CE33CED8F925
:10021600FF781DE2FBEF5B600EE97005ED04F980E7
:1002260006EC7003ED04FC0DEDB404D4E9606FEC4C
:10023600606CE9C39C5009E975F00AA42CFF80079D
:10024600EC75F00AA429FF7838EFF2E4FD74017E1C
:1002560000A805088005C333CE33CED8F9FF781D34
:10026600E2FBEF5B6021ED75F006A42424F874012F
:10027600F2ED75F006A42425F87401F2ED75F0068A
:10028600A42423F87401F20DEDB404C1E4781EF23F
:0E02960008F222E4781DF20804F2087490F2D7
:0102A4002237
:10167E00538E7F5389F0438901758A66758CFCC23F
:0A168E008DD28CD2A9D2A9D2AF22CE
:10173600538EBF53890FE4F58B758DB8C28FD28E49
:03174600D2AB2201
:03187B00C28E22F8
:03000000020D1FCF
:0C0D1F00787FE4F6D8FD758120020D6697
:1004E000E709F608DFFA8046E709F208DFFA803EFE
:1004F00088828C83E709F0A3DFFA8032E309F608EB
:10050000DFFA8078E309F208DFFA807088828C8352
:10051000E309F0A3DFFA806489828A83E0A3F60806
:10052000DFFA805889828A83E0A3F208DFFA804CE0
:1005300080D280FA80C680D4806980F280338010B7
:1005400080A680EA809A80A880DA80E280CA803320
:1005500089828A83ECFAE493A3C8C582C8CCC58398
:10056000CCF0A3C8C582C8CCC583CCDFE9DEE78068
:100570000D89828A83E493A3F608DFF9ECFAA9F0E7
:10058000EDFB2289828A83ECFAE0A3C8C582C8CC3D
:10059000C583CCF0A3C8C582C8CCC583CCDFEADE56
:1005A000E880DB89828A83E493A3F208DFF980CCB8
:1005B00088F0EF60010E4E60C388F0ED2402B404B1
:1005C0000050B9F582EB2402B4040050AF23234558
:0605D00082239005307348
:1005D600F8BB010DE58229F582E5833AF583E8F05B
:1005E600225006E92582C8F622BBFE05E92582C807
:0205F600F222EF
:1005F800EF8DF0A4A8F0CF8CF0A428CE8DF0A42E17
:02060800FE22D0
:10060A00BC000BBE0029EF8DF084FFADF022E4CCD4
:10061A00F875F008EF2FFFEE33FEEC33FCEE9DEC9D
:10062A00984005FCEE9DFE0FD5F0E9E4CEFD22EDE3
:10063A00F8F5F0EE8420D21CFEADF075F008EF2F2D
:10064A00FFED33FD4007985006D5F0F222C398FD1E
:05065A000FD5F0EA22BB
:100D2B00020E8EE493A3F8E493A34003F68001F242
:100D3B0008DFF48029E493A3F85407240CC8C333C9
:100D4B00C4540F4420C8834004F456800146F6DF98
:100D5B00E4800B0102040810204080900B6EE47EAF
:100D6B00019360BCA3FF543F30E509541FFEE4938D
:100D7B00A360010ECF54C025E060A840B8E493A354
:100D8B00FAE493A3F8E493A3C8C582C8CAC583CA7F
:100D9B00F0A3C8C582C8CAC583CADFE9DEE780BE37
:010C030000F0
:00000001FF
