:04001E0000000022BC
:0B152C000000007F0B7EBEDEFEDFFC37
:011537002291
:10149800AD07AC06ED1DAE0470011C4E60051215BB
:0414A8002C80F12281
:1014D100EF1FAC0670011E4C600512001E80F12248
:0309FC00011B00DC
:08000300D2051212CBC20A2241
:100276008F3D121570E518D3940A5003020341E529
:100286003D64017027E518B40B1612157A8F0EE53A
:100296000EB40F05E4F50E8002050EAF0E1213FA2A
:1002A600E5186415600302040B0211BDE518D3942A
:1002B6000A402CE53D64027026E518B40B151215AC
:1002C6007A8F0EE50E7005750E0F8002150EAF0EB5
:1002D6001213FAE5186415600302040B0211E5E532
:1002E60018D3940A4014E53DB4030FE518B415037A
:1002F600E4F51BE4FF12142A803DE518D3940A5056
:100306000302040BE53D6404600302040BE518B424
:100316000B03120693E518B4151DE50DD3940040A2
:100326000F751B01E4F519F51A1214AC7F01800450
:10033600E4F51BFF12142AE4F51822E53DB40C037C
:1003460002159FE53DB40D0C12157A8F0E75180B2C
:100356007F65801DE53DB40B0D751815E4F51B1280
:1003660015D07F66800BE53DB40E09B200D2017F41
:100376000502142AE53DB421047F018007E53DB45A
:100386002C0AE4FF12155A8E158F1622E53DB41677
:10039600087F0412142A021234E53DB4011D7F04BD
:1003A60012142AE5132401FFE433FEC3EF9410EE82
:1003B60064809480504FE513048014E53DB4021325
:1003C6007F0412142AE513D394004039E51314FF71
:1003D60002125BE53DB4030EE514B51705E4F5140A
:1003E600801405148010E53DB4041AE514700585E3
:1003F600171480021514AF141213618E0B8F0C1292
:06040600104E120003225B
:1010C700C206E4F51B1215D0120C7B9206E4F51844
:1010D700750D1E121395D2AF7F2C7E011214981234
:1010E7000C1112157030060302069385150B851631
:0610F7000C7F0A12142A0E
:0110FD0022D0
:100CE00012158E8024300B121215848F127F02127F
:100CF000142A7510037511E8C20B1215C38F3CE559
:100D00001BB4020AE53CB42CDC1210C780D7E51BEB
:100D1000B4011AE50DC394015013751B021215D0CE
:100D20001214F1C297C296C291C29080B8E53C609D
:0F0D300004FF120276300AAD1212CBC20A80A65F
:03000B000209697E
:10096900C0E0C0F0C083C082C0D075D000C000C054
:0D09790001C002C003C004C005C006C007D5
:100986001215CD8F22120026E51BC3940250441285
:10099600100D5002803DE522640A6021E522C394D1
:1009A6006450300511E51170020510C394D0E510AE
:1009B6009407401F7F0A12142AD20A8016300013A9
:1009C6000511E51170020510C394D0E51094074097
:0B09D60002D20B758A66758CFCC28D86
:1009E100D007D006D005D004D003D002D001D0006A
:0B09F100D0D0D082D083D0F0D0E03214
:03001B0002120DC1
:10120D00C0E0C0D0E51BB40119051AE51A7002053E
:10121D0019C394B8E519940B4008150D751900758F
:07122D001A00D0D0D0E0321E
:0815970000000000000000004C
:1009FF00011305C100021521FC011400011700C1EC
:070A0F0005C102C104C10191
:041192008E458F46B1
:1011960078477C007D007BFF7A1579977E007F0279
:1011A6001204DC7B007A007947AF46AE45120F8405
:0611B600E547FEE548FFDD
:0111BC002210
:021361008F44B7
:10136300EF75F002A42402FFE5F03406FE12119299
:071373008E158F168544144E
:01137A002250
:101441008F3EE4FFFE121413E53EFDE4FFFE12138E
:06145100AFE53EF5132299
:040EEC008E448F455C
:100EF00078467C007D007BFF7A1579997E007F0221
:100F00001204DCE544F5468545477F007E02121455
:100F100013AD467F007E021213AFAD477F017E0204
:100F20001213AFE514F46009AD147402FFFE12133E
:070F3000AF8544158545164D
:010F37002297
:1012EF007F007E04121413A203E433FD7F007E04FB
:0F12FF001213AFA200E433FD7F027E040213AF8F
:1012CB00300509AF16AE15120EECC205300207AF92
:1012DB0013121441C2022004033001071212EFC291
:0412EB0004C2012216
:0715AF007F007E0602141309
:060BA3008F448C458D46D5
:100BA90078497C007D007BFF7A15799B7E007F0266
:100BB9001204DC784B7C007D007BFF7A15799D7EE1
:100BC900007F021204DCE545F54B85464CE544758A
:100BD900F002A4AEF02402F548EE3406F547AD4B19
:100BE900AF48FE1213AF7F047E00121498E5482423
:100BF90001FFE43547FEAD4C1213AF7B007A007953
:080C090049AF48AE47020F8419
:0B154400AD078D177F007E060213AF7D
:100C7B00E4FFFE12137B8F13E513D3940F40047F15
:100C8B000180027F00E513C3940050047E018002B3
:100C9B007E00EE4F60037513057F007E0412137BFD
:100CAB00EF1392037F027E0412137BEF1392007FEC
:100CBB00007E0612137B8F17E517B4FF02D3227F3A
:100CCB00007E021211928E158F167402FFFE121304
:050CDB007B8F14C32211
:0D000E00E4F5C7F5C5F5C675C380F5C4223D
:1014130075C78075F50C75C5038FC48EC375C65A21
:0714230075C6A50002000ED2
:10137B0075C78075F50C75C5018FC48EC375C65ABC
:09138B0075C6A500AFC212000EE8
:011394002236
:0A0F84008E4D8F4E8B4F8A5089511D
:100F8E0075C78075F50C75C501E4FDED7E00254E27
:100F9E00F553EE354DF5528553C4E552F5C375C67E
:100FAE005A75C6A50000AB4FAA50A9518D82758304
:0D0FBE0000E5C21205020DBD03D102000EB8
:1013AF0075C78075F50C75C5028FC48EC38DC27558
:0913BF00C65A75C6A50002000E15
:09158E00E4F5CAF5C975BA902212
:0715B6007F0A7E000214D140
:0F150100D2CCD2CD1215B6C2CC1215B6C2CD22A5
:0C153800C2CCD2CD1215B6D2CC0215B632
:1014E100EF24FF92CC1215B6D2CD1215B6C2CD2281
:10145700D2CC1215B6D2CD1215B6A2CC9209C2CDF6
:05146700A209E433FFBF
:01146C00225D
:0210FE008F560B
:10110000755708AF571557EF601DE55630E704D205
:10111000CC8002C2CC1215B6D2CD1215B6C2CDE526
:101120005625E0F55680DC121457EF24FF9208A2F2
:0411300008E433FF9D
:011134002298
:021135008F56D3
:10113700755708E4F558D2CCAF571557EF6017E548
:101147005825E0F558D2CD1215B630CC020558C255
:0D115700CD1215B680E2AF561214E1AF586C
:011164002268
:100A16005C000DC0F9A4B0999282F880907F88831B
:100A2600C6A1868E8CC1CE9189C712C8ABF7BF4DC1
:100A36000000407924301912027800107FC789021D
:100A46000B21FC02100000010F06011200010E002E
:0C0A5600010D1EC18C02091F40010800A8
:0D151F0053913C4392C3E4F5B175B2FF2235
:10134600ED4C600A74002FF582E434008008740DB9
:0B1356002FF582E43400F583E0FF2255
:10128100300308752C00752D158006752C00752D01
:1012910016752E00752FFF7BFF7A007DFF7C007F86
:0512A10017120899225C
:040A8A00AB07AA0606
:100A8E007C277D101205368F257C277D10AF03AE97
:100A9E00021205367E037FE8CFCDCFCECCCE120527
:100AAE00368F247C037DE8AF03AE021205367E003E
:100ABE007F64CFCDCFCECCCE1205368F23AE02AF14
:100ACE00037C007D641205367E007F0ACFCDCFCE2B
:100ADE00CCCE1205368F26E525C39401E524FD7C88
:100AEE0000E523FB7A00500F752C008F2D752E001C
:100AFE00752F037F64800E752C0085262D752E00B4
:080B0E00752F03AF25120899B1
:010B160022BC
:100F3800E50CB5160AE50BB51505AF0CFE80393082
:100F48000C19050CE50C7002050BD39430E50B94D5
:100F58002A4021750B21750CFC8019E50C150C70C5
:100F680002150BC3E50C94FCE50B94215006750B98
:0C0F78002A750C30AF0CAE0B120A8A2256
:1012A600E51375F00A84FD7C00E51375F00A84E504
:1012B600F0FB7A00752C00752DFF752E00752FFF3B
:0512C6007FFF02089902
:100DF800E51275F06484FFE51275F06484E5F0751A
:100E0800F00A84F524E51275F00A8485F023EF6072
:100E180016FD7C00E524FB7A00752C0085232D75D2
:100E28002E00752FFF8015E524FB7A00752C0085B0
:100E3800232D752E00752FFF7DFF7C007FFF120884
:010E48009910
:010E49002286
:10116500E50E75F00A84A9F0E50E75F06484E5F0E6
:1011750075F00A84FB7A00AF01752C008F2D752E52
:0D11850000752FFF7D197C007F170208996F
:100E4A00E50D75F06484FFE50D75F06484E5F075D1
:100E5A00F00A84F524E50D75F00A8485F023EF6025
:100E6A0016FD7C00E524FB7A00752C0085232D7580
:100E7A002E00752FFF8015E524FB7A00752C00855E
:100E8A00232D752E00752FFF7DFF7C007F1612081B
:010E9A0099BE
:010E9B002234
:10148300E4F52CF52DF52E752FFF7B18FA7DFFFC67
:051493007FFF02089933
:1013C800752C00752D1A752E00752FFF7B1A7A0063
:0913D8007DFF7C007FFF020899F3
:10130E00A200E433752C00F52D752E00752FFF7B92
:0C131E00FF7A007DFF7C007F1702089919
:1013E100752C00752D1B752E00752FFF7B1B7A0048
:0913F1007D1B7C007F1B020899A2
:100D9C00A907E97012C3ED953BE53A6480F8EC6461
:100DAC008098500122C322B90112C3EB953BE53A5E
:100DBC006480F8EA648098500122C322B90214C3FB
:100DCC00E537953BE53A6480F8E536648098500148
:100DDC0022C322B90314C3E539953BE53A6480F884
:0C0DEC00E538648098500122C322C32225
:0A0899008F278C288D298A2A8B2BCB
:1008A30075301CE527FD7C00852A36852B37852C82
:1008B30038852D39753A0085303BAB29AA28AF0816
:1008C300120D9C400E0508E508D3940340D5E4F5CA
:1008D3000880D0C297C296C291C29012151FE50834
:1008E300701AE52F6401452E7005FC7D0180047CA0
:1008F300007D00AF271213468FB0D297E508B401ED
:100903001AAF29E52F6402452E7005FC7D01800492
:100913007C007D001213468FB0D296E508B4021A0C
:10092300AF2BE52F6403452E7005FC7D0180047C0D
:10093300007D001213468FB0D291E508B4031AAFBD
:100943002DE52F6404452E7005FC7D0180047C0099
:100953007D001213468FB0D2900508E508D39403A7
:050963004003E4F5086B
:01096800226C
:100E9C00E50FB40A03120F38E50F70031213C8E5FF
:100EAC000FB40103121483E50FB40203120DF8E51D
:100EBC000FB40303121281E50FB404031212A6E55A
:100ECC000FB4050312130EE50FB406031213E1E57C
:100EDC000FB46503121165E50FB46603120E4A22B6
:08159F007F0312142AB203229B
:0A15700020030675091F750A4022CA
:10100D00200307E50FD394644005120E9C8030D366
:10101D00E50A940AE5099400400D120E9CE50A15A7
:10102D000A701C15098018E50A64054509600E75DE
:10103D000900750A05C297C296C291C290D322C308
:01104D002280
:10142A00E4F510F511E50F6F600CBF0402D202BF9C
:07143A000302D2048F0F2210
:0315CD00AF0F223B
:1011BD00E50DC39414500474058014E50DC3943CDF
:1011CD005004740A8009E50DC394E6500674142585
:0811DD000DF50D7F6602142AD6
:1011E500E50DD3943C400474EC8014E50DD39414C0
:1011F500400474F68009E50DC39405400674FB258B
:081205000DF50D7F6602142AAD
:10146D00759850438E01538EFB75D7FE75D6FF438D
:06147D008E1053A23F2275
:0815A7008F993099FDC29922D1
:0615BD00AE071215A72283
:0300230002154F74
:0B154F00309902C299309802C2983215
:0415C900000000001E
:030A6200011C0074
:06108C008F498C4A8D4BD8
:10109200784C7C007D007BFF7A1579C97E007F0247
:1010A2001204DCE54AF54CE54BF54D1215017F22A1
:1010B2001210FEAF491210FEAF4C1210FEAF4D12CD
:0510C20010FE021538CC
:020FCB008F5342
:100FCD0078547C007D007BFF7A1579CB7E007F0203
:100FDD001204DC1215017F221210FEAF531210FE07
:100FED001215017F231210FEE4FF1211358F547F6D
:0F0FFD00011211358F55121538E554FEE555FFD9
:01100C0022C1
:100C11007D037C007F0212108C7F327E00121498BB
:100C21007D057CC07F0212108C7F327E00121498E9
:100C3100E5162404FFE51534DEFE7C007D0A12056D
:100C410036EF7806C333CE33CED8F9AC064410FD67
:100C51007F0312108C7486FCE51344A0FD7F0512FE
:100C6100108CE4FDFC7F0612108C7D1A7C5F7F07DF
:0A0C710012108C85150B85160C225D
:040798008E498F4AAD
:10079C00E4F54BF54CF54DF54EF54FF550F551F59F
:1007AC00527F03120FCB7E00EF540C7802CEC31392
:1007BC00CE13D8F9F5528E5145517008754B2175F1
:1007CC004CFC8024E55264014551700E754B1D752F
:1007DC004CB0754D23754E8C803DE55264024551ED
:1007EC00700E754B1D754CB0754D2A754E308027AB
:1007FC00E5526403455170647F07120FCBEEC313AF
:10080C0030E008754B19754C648006754B13754CAC
:10081C0088754D1D754EB07F03120FCB755100EFCF
:10082C005403F55245517007F54F75500A802FE56A
:10083C0052640145517007F54F7550148020E552F4
:10084C00640245517007F54F7550058011E55264EF
:10085C000345517007F54F75500280028018C3E5AF
:10086C004A954CE549954B5002800BD3E54A954E81
:10087C00E549954D4004E4FEFF22C3E54A954CFF43
:0C088C00E549954BFEAC4FAD501205360F
:01089800223D
:04058B008E478F48C0
:10058F00E4F549F54AF54BF54CF54DF54EF54FF5BC
:10059F00507F03120FCB7E00EF540C7802CEC313A3
:1005AF00CE13D8F9F5508E4F454F70087549217508
:1005BF004AFC8024E5506401454F700E75491D7546
:1005CF004AB0754B23754C8C803DE5506402454F06
:1005DF00700E75491D754AB0754B2A754C308027C2
:1005EF00E5506403454F70647F07120FCBEEC313C2
:1005FF0030E008754919754A648006754913754AC4
:10060F0088754B1D754CB07F03120FCB754F00EFE4
:10061F005403F550454F7007F54D754E0A802FE581
:10062F00506401454F7007F54D754E148020E5500D
:10063F006402454F7007F54D754E058011E5506406
:10064F0003454F7007F54D754E028002802DAC4D5E
:10065F00AD4EAE47AF48120524E54A2FF550E54998
:10066F003EF54FD3E550954CE54F954B4002800B2F
:10067F00C3E550954AE54F95495004E4FEFF22AE7D
:03068F004FAF501A
:010692002245
:0E151000E4FE7F0A120FCBEE5403FE12058B91
:01151E0022AA
:10104E001207988E478F487F03120FCBAD075305BB
:10105E003F7C00E5475403FEE5487806C333CE33A4
:10106E00CED8F94205EE42044305107F0312108CD0
:0E107E007F0A120FCBEE30E6F77F0A02142A2B
:09157A007F05120FCBEE540FFFA8
:011583002245
:0213FA008F3E24
:1013FC007F05120FCBAD07AC065304F0E53EFEEEB5
:07140C0042047F0502108C71
:020D3F008F44DF
:100D41007F03120FCBAD07AC065305EF7F031210E3
:100D51008C7F02120FCBAC06AD07E544B40105430D
:100D6100040280035304FD43040130070553057F4A
:100D710080034305807F0212108C7F0A120FCBEE95
:100D810020E6097F0A7E0012149880EE1215108E5B
:0A0D9100458F4612104EAE45AF46E6
:010D9B002235
:0B155A00EF24FF920CD207120D3F227D
:0A1565007F0B120FCBEEFF530701BE
:01156F002259
:10069300E4F53EF53FFE7F03120FCB7E00EF540CD3
:1006A3007802CEC313CE13D8F9FF4E7008754021DC
:1006B3007541FC8020EF64014E700E75401D75413D
:1006C300B075422375438C803CEF64024E700E7507
:1006D300401D7541B075422A7543308028EF64038D
:1006E3004E60030207977F07120FCBEEC31330E070
:1006F3000875401975416480067540137541887506
:10070300421D7543B0AE40AF418E0B8F0C8E158FDB
:1007130016D20C7F0A12142AAF41AE4012104E7F3C
:10072300327E001214981215AFE51665437004E586
:100733001565426035C2077F01120D3F8E158F1676
:100743007FF47E01121498121565EF60187FF47E12
:1007530001121498AF3FAD16AC15120BA3053FE57C
:100763003F7002053E12157080BFE53F153F7002D2
:10077300153EAF3F121544E4F514FF1213618E15B5
:100783008F168E0B8F0CAF0CAE0B12104EAF16AE36
:0407930015120EEC41
:01079700223F
:02125B008F3EC4
:10125D007F05120FCBAD07AC065305F0E53E540FDD
:10126D0042057F0512108C853E13E51C70057F012C
:03127D0012132A1F
:01128000224B
:02132A008F3FF3
:10132C007F02120FCBAD07AC06E53F6005430440CE
:0A133C0080035304BF7F0202108CEF
:101234007F02120FCBAD07AC06ECC413135403F4B6
:1012440054016008430440751C0180065304BFE444
:07125400F51C7F0202108C63
:091584007F0B120FCBEEC313FF25
:01158D00223B
:1014F1007F02120FCBAC06EF54FEFD7F0202108C6F
:100A6500017400185C000000000000000000000098
:100A750000000000000000000000000000025A0114
:040A85009001590083
:0515C300AF74E4F574B3
:0115C8002200
:1014BF0053B2C353B1C3C297C296C291C29075B013
:0214CF00FF22FA
:10002600E4FF1214BFFDED14600E14600F1460108F
:1000360024037014A2B3800AA2B28006A2B480027E
:10004600A2B5E433F5238003752301E5236067ED4C
:1000560075F006A4245EF8E6604DE4F6ED75F0064C
:10006600A42460F8E6600EE4F6ED75F006A42461BB
:10007600F8E4F68026ED75F006A4245CF8E6FA08A6
:10008600E6FBD39414EA94004011D3EB94E8EA9487
:10009600035008E5597004ED04F574ED75F006A4F7
:1000A600245FF8E4F67F01ED75F006A4245CF8E41D
:1000B600F608F602014AED75F006A4245EF8E6702D
:1000C600317601ED75F006A4245CF8E4F608F6ED49
:1000D60075F006A42460F8E4F6E5596015ED75F0B0
:1000E60006A42461F8E6700AED75F006A42460F80B
:1000F6007601ED75F006A4245CF8E6FA08E6C394EA
:10010600FFEA94FF500FED75F006A4245CF808068C
:10011600E618700106ED75F006A4245CF8E6FA0808
:10012600E6D394E8EA9403401BED75F006A4245F39
:10013600F8E67010E559700CED04FE75F00AA42E71
:10014600F57476010DED6404600302002CEF603255
:10015600E4F559755A01755B90FFFDED75F006A43F
:100166002460F8E6600D7401A805088002C333D840
:10017600FC42070DBD04E4EF6008F559755A017598
:100186005B90E4FFFEFDED75F006A4245EF8E660E4
:100196000E7401A805088002C333D8FC42070E0D71
:1001A600BD04E3EEC39402500302026CE559700AE3
:1001B6008F59755A01755B908013C3E55B94FFE513
:1001C6005A94FF5008055BE55B7002055AD3E55B60
:1001D6009408E55A94025003020275E4F9FCFD7492
:1001E600017E00A805088005C333CE33CED8F9FFBB
:1001F600EF5559600EE97005ED04F98006EC7003C1
:10020600ED04FC0DBD04D8E96065EC6062E9C39CB1
:100216005009E975F00AA42CFF8007EC75F00AA4D2
:1002260029FF8F74E4FD74017E00A805088005C3CC
:1002360033CE33CED8F9FFE559FBEF5B601EED7583
:10024600F006A42460F87601ED75F006A42461F8A2
:100256007601ED75F006A4245FF876010DBD04C69F
:0F026600E4F55AF55B22E4F559755A01755B9082
:010275002266
:10139500538E7F5389F0438901758A66758CFCC22B
:0A13A5008DD28CD2A9D2A9D2AF22BA
:1014AC00538EBF53890FE4F58B758DB8C28FD28ED6
:0314BC00D2AB228E
:0315D000C28E22A6
:03000000020B17D9
:0C0B1700787FE4F6D8FD758174020B5E57
:10040C00E709F608DFFA8046E709F208DFFA803ED2
:10041C0088828C83E709F0A3DFFA8032E309F608BF
:10042C00DFFA8078E309F208DFFA807088828C8327
:10043C00E309F0A3DFFA806489828A83E0A3F608DB
:10044C00DFFA805889828A83E0A3F208DFFA804CB5
:10045C0080D280FA80C680D4806980F2803380108C
:10046C0080A680EA809A80A880DA80E280CA8033F5
:10047C0089828A83ECFAE493A3C8C582C8CCC5836D
:10048C00CCF0A3C8C582C8CCC583CCDFE9DEE7803D
:10049C000D89828A83E493A3F608DFF9ECFAA9F0BC
:1004AC00EDFB2289828A83ECFAE0A3C8C582C8CC12
:1004BC00C583CCF0A3C8C582C8CCC583CCDFEADE2B
:1004CC00E880DB89828A83E493A3F208DFF980CC8D
:1004DC0088F0EF60010E4E60C388F0ED2402B40486
:1004EC000050B9F582EB2402B4040050AF2323452D
:0604FC00822390045C73F2
:10050200F8BB010DE58229F582E5833AF583E8F02F
:10051200225006E92582C8F622BBFE05E92582C8DB
:02052200F222C3
:10052400EF8DF0A4A8F0CF8CF0A428CE8DF0A42EEB
:02053400FE22A5
:10053600BC000BBE0029EF8DF084FFADF022E4CCA9
:10054600F875F008EF2FFFEE33FEEC33FCEE9DEC72
:10055600984005FCEE9DFE0FD5F0E9E4CEFD22EDB8
:10056600F8F5F0EE8420D21CFEADF075F008EF2F02
:10057600FFED33FD4007985006D5F0F222C398FDF3
:050586000FD5F0EA2290
:100B2300020CE0E493A3F8E493A34003F68001F2FC
:100B330008DFF48029E493A3F85407240CC8C333D3
:100B4300C4540F4420C8834004F456800146F6DFA2
:100B5300E4800B01020408102040809009FCE47E2D
:100B6300019360BCA3FF543F30E509541FFEE49397
:100B7300A360010ECF54C025E060A840B8E493A35E
:100B8300FAE493A3F8E493A3C8C582C8CAC583CA89
:100B9300F0A3C8C582C8CAC583CADFE9DEE780BE41
:010A8900006C
:00000001FF
