:0418150000000022AD
:0F170C0000000075080B7509BED509FDD508FA58
:01171B0022AB
:10171C00EF1FAC0670011E4C600512170C80F122F5
:10172C00EF1FAC0670011E4C600512181580F122DB
:030B2B0081030043
:1010DD00E47855F27803F2121821120CD77855EFF7
:1010ED00F2E47800F2780F741EF2121637D2AF7850
:1010FD0055E2B401097800741FF27F6880257F2CBA
:10110D007E0112171C12083E1217857855E2B402A3
:10111D00031209197807E2FF08E2780DCFF208EF04
:06112D00F27F0A1216FB1E
:011133002299
:1002A5007854EFF21217857800E2FFD3940A5003D1
:1002B5000203C37854E264017040EFB40B1A1217BD
:1002C500CD7810EFF2BF0F04E4F280057810E20458
:1002D500F27810E2FF1216027800E2B41503121448
:1002E500487800E2641F60030204C77806E2C394FD
:1002F5000440030204C7E204F2227854E264027067
:10030500427800E2B40B1A1217CD7810EFF270059F
:10031500740FF280057810E214F27810E2FF1216DD
:10032500027800E2B415031214767800E2641F60C7
:10033500030204C77806E2D3940050030204C7E21F
:1003450014F2227854E2B4031B7800E2B41504E4F5
:100355007803F27800E2641F70030204C7E4FF1219
:1003650016FB80557854E2640460030204C77800E4
:10037500E2B40B031209197800E2B41522780FE2F2
:10038500D39400401278037401F2E47801F208F284
:100395001216D67F018005E47803F2FF1216FB786A
:1003A50000E2B41F0512153C800C7800E2B429095F
:1003B50012174C12000E0210DDE47800F222785478
:1003C500E2B40B1078007415F2E47803F2121821E8
:1003D5007F66806A7854E2B40C06120003D20122CB
:1003E5007854E2B40D101217CD7810EFF27800743E
:1003F5000BF27F6580487854E2B40E0AB2007F059F
:100405001216FBD201227854E2B416087F041216A4
:10041500FB0216C37854E2B421047F0180087854A6
:10042500E2B42C0DE4FF1217C27807EEF208EFF2E2
:10043500227854E2B4220A78007429F27F67021602
:10044500FB7854E2B401127F041216FB7804E2FF34
:10045500C3940F506DEF0480167854E2B402177FF1
:10046500041216FB7804E2FFD394004055EF14FF05
:10047500121134D201227854E2640370177809E22C
:10048500FF603F7805E2B50704E4F280227805E2D3
:1004950004F2801B7854E2640470277809E2FF6057
:1004A500217805E27004EFF280057805E214F27810
:1004B50005E2FF12151A780DEEF208EFF21212AEF0
:0304C500D201223F
:100E3D001217E1802D3006171217D77814EFF27FB5
:100E4D00021216FB78127403F20874E8F2C206124D
:100E5D0018087853EFF27803E2B4020B7853E2B43A
:100E6D002CD31210DD80CE7803E2B4011D780FE291
:100E7D00C39401501578037402F212182112174C05
:100E8D00C297C296C291C29080AB7853E2FF6003C5
:080E9D001202A51213AB809DA7
:03000B00020A8A5C
:100A8A00C0E0C0F0C083C082C0D075D000C000C032
:0D0A9A0001C002C003C004C005C006C007B3
:100AA70012001E7837EFF21200267803E2C3940291
:100AB700504F12121A500280487837E2FF640A60DA
:100AC70024EFC39464503A781208E22401FFF21825
:100AD700E23400FEF2C3EF94D0EE940740237F0A7E
:100AE7001216FB801C300019781208E22401FFF26D
:100AF70018E23400FEF2C3EF94D0EE94074002D21E
:090B070006758A66758CFCC28D2E
:100B1000D007D006D005D004D003D002D001D00039
:0B0B2000D0D0D082D083D0F0D0E032E3
:03001B000212F2DC
:1012F200C0E0C0D075D000C000C006C0077803E2CD
:10130200B40122780108E22401FFF218E23400FE5F
:10131200F2C3EF94B8EE940B400B780FE214F2781C
:1013220001E4F208F2D007D006D000D0D0D0E032EB
:0418190000000000CB
:100B2E00810600810405C102C100820721FC8105F6
:060B3E0000810900C10165
:0713E4007858EEF208EFF269
:1013EB00087C007DFE7BFF7A1879197E007F021244
:1013FB0005987858E2FE08E2FF7BFE7A00795A12D4
:0B140B001026785AE2FE08E2FDEDFF1B
:0114160022B3
:04151A007857EFF21D
:10151E00E275F002A42402FFE5F03406FE1213E495
:0D152E007807EEF208EFF27857E27805F248
:01153B00228D
:1013AB00300135E4FFFE1216517804E2FDE4FFFE36
:1013BB001215787805E2FD7F037E00121578A202E4
:1013CB00E433FD7F047E00121578A200E433FD7F29
:0913DB00057E00121578C2012202
:0717FA00785CEFF27F022290
:101669007F017E061215CCEFB4FF037F0022EF54F1
:061679001C1313543FFF97
:01167F002248
:10153C007F007E061216517806E2FF1217FA780623
:0E154C00E225E025E04FFD7F017E06021578C6
:0C179F007809EFF2FD7F007E060215784D
:0A0FC7007857EFF208ECF208EDF2A3
:100FD100785C7C007DFE7BFF7A18791B7E007F02A6
:100FE1001205987858E2FC08E2FDEC785CF208ED15
:100FF100F27857E275F002A42402FFE5F03406FE10
:10100100785AF208EFF208E2FD1215787F047E00AB
:1010110012171C785BE22401FF18E23400FE785DB0
:05102100E2FD0215785C
:100CD7007F017E061215CCEFB4FF07E47806F27F9A
:100CE7000122EF541C1313543F7806F2E4FFFE125F
:100CF70015CC7804EFF2D3940F40047F0180027F74
:100D0700007804E2C3940050047E0180027E00EE66
:100D17004F600578047405F27F047E001215CCEF4E
:100D27001392027F057E001215CCEF1392007F000D
:100D37007E061215CC7809EFF2F46003E270037FA8
:100D470002227F037E001215CC7805EFF212151AE6
:020D57007F001B
:010D59002277
:0D000E00E4FFFE1216517F007E060216511F
:0D176B00E4F5C7F5C5F5C675C380F5C422C9
:1016510075C78075F50C75C5038FC4EEF5C375C6E6
:081661005A75C6A50002176BC3
:1015CC0075C78075F50C75C5018FC4EEF5C375C66E
:0A15DC005A75C6A500AFC212176BC6
:0115E60022E2
:10102600785CEEF208EFF208EBF208EAF208E9F271
:1010360075C78075F50C75C501E408F27861E2FFA5
:10104600C394035035785DE22FFF18E23400AD07F4
:10105600FC8DC4F5C375C65A75C6A50000785EE258
:10106600FB08E2FA08E2F908E2F582758300E5C2B8
:0D1076001205BE7861E204F280C202176B21
:1015780075C78075F50C75C5028FC4EEF5C3AF0548
:0C1588008FC275C65A75C6A50002176B0D
:0917E100E4F5CAF5C975BA9022BD
:071801007F0A7E0002172C94
:0F175C00D2CCD2CD121801C2CC121801C2CD22AC
:0C17AB00C2CCD2CD121801D2CC02180121
:10173C00EF24FF92CC121801D2CD121801C2CD2287
:10169700D2CC121801D2CD121801A2CC9205C2CD1C
:0516A700A205E433FF81
:0116AC00221B
:041332007861EFF2FD
:10133600087408F27862E2FF14F2EF601E18E230D9
:10134600E704D2CC8002C2CC121801D2CD12180109
:10135600C2CD7861E2FF25E0F280D9121697EF241C
:08136600FF9204A204E433FF2E
:01136E00225C
:04136F00785FEFF2C2
:10137300087408F2E408F2D2CC7860E2FF14F2EFCA
:10138300601A08E2FF25E0F2D2CD12180130CC0535
:101393007861E204F2C2CD12180180DD785FE2FFCA
:0713A30012173C7861E2FF24
:0113AA002220
:100B44005C0070C0F9A4B0999282F880907F888389
:100B5400C6A1868E8CC1CE9189C712C8ABF7BF4D92
:100B64000063407924301912027800107FC789820B
:100B74000D21FC82120000811106811400811000F5
:0C0B8400810F1EC187820B1F40810A00F8
:0D17780053913C4392C3E4F5B175B2FF22DA
:1015E700ED4C600A74632FF582E434008008747050
:0B15F7002FF582E43400F583E0FF22B2
:1014F6007843E4300206F20874158004F208741684
:10150600F208E4F20874FFF2FB7A00FD7C007F1714
:041516001206472250
:07075D007838EEF208EFF21C
:100764004E701B7843F2087410F208E4F20874FF28
:10077400F27B107A007D107C007F1002083A7838F2
:10078400E2FA08E2FB7C277D10FFAE021205F27844
:100794003CEFF27C277D10AF03AE021205F27E031C
:1007A4007FE8CFCDCFCECCCE1205F2783BEFF278F6
:1007B40038E2FA08E2FB7C037DE8FFAE021205F2A0
:1007C4007E007F64CFCDCFCECCCE1205F2783AEF47
:1007D400F27C007D64AF03AE021205F27E007F0A54
:1007E400CFCDCFCECCCE1205F2783DEFF218E2C3D6
:1007F4009401502018E2FD7C0018E2FB7A00783D59
:10080400E2FF7843E4F208EFF208E4F2087403F23A
:100814007F648022783CE2FF18E2FD7C0018E2FB52
:100824007A00783DE2F5827843E4F208E582F20842
:09083400E4F2087403F212064715
:01083D002298
:100EA5007807E2FC08E2FD780DE2FE08E2FFB505F1
:100EB50006EEB50402804630071F780EE22401F2E3
:100EC50018E23400F2D308E2943018E2942A40265E
:100ED5007421F20874FCF2801D780EE224FFF218EA
:100EE500E234FFF2C308E294FC18E294215007743F
:100EF5002AF2087430F2780DE2FE08E2FF12075D6F
:010F050022C9
:1014CE007804E2FF75F00A84FD7C00EF75F00A8463
:1014DE00E5F0FB7A007843E4F20874FFF208E4F2D8
:0814EE000874FFF2FF0206473B
:100F67007814E2FF75F06484FEEF75F06484E5F0B1
:100F770075F00A847839F27814E275F00A847838C3
:100F8700E5F0F2EE601BFD7C0008E2FB7A0018E258
:100F9700FF7843E4F208EFF208E4F20874FFF28006
:100FA7001A7839E2FB7A0018E2FF7843E4F208EF97
:0F0FB700F208E4F20874FFF2FD7C00FF12064717
:010FC6002208
:101417007810E2FF75F00A84A9F0EF75F06484E5AF
:10142700F075F00A84FB7A00AF017843E4F208EF25
:10143700F208E4F20874FFF27D197C007F170206B8
:01144700475D
:100F0600780FE2FF75F06484FEEF75F06484E5F017
:100F160075F00A847839F2780FE275F00A84783829
:100F2600E5F0F2EE601BFD7C0008E2FB7A0018E2B9
:100F3600FF7843E4F208EFF208E4F20874FFF28067
:100F46001A7839E2FB7A0018E2FF7843E4F208EFF8
:100F5600F208E4F20874FFF2FD7C007F16120647E1
:010F66002268
:101594007843E4F208741BF208E4F20874FFF27B67
:0C15A4001B7A007D1A7C007F1A020647AB
:1014A4007806E2FF75F00A84FEEF75F00A84AFF067
:1014B400EEFB7A007843E4F208EFF208E4F20874F1
:0A14C400FFF2FD7C007F0C020647DA
:10168000E47843F208F208F20874FFF27B187A005B
:07169000FD7C00FF0206478C
:10161D007843E4F208741AF208E4F20874FFF27BDE
:0A162D001A7A00FD7C00FF02064758
:10155A00A200E4FF337843CFF208EFF208E4F2087E
:0E156A0074FFF2FB7A00FD7C007F170206473B
:1015B0007843E4F208741BF208E4F20874FFF27B4B
:0C15C0001B7A007D1B7C007F1B0206478D
:100D5A00A907E97016D37852E29DEC6480F5F01881
:100D6A00E2648095F04002D322C322E9B40116D38B
:100D7A007852E29BEA6480F5F018E2648095F040CC
:100D8A0002D322C322E9B4021C7851E2FE08E2FF30
:100D9A00C3784EE29FEE6480F5F018E2648095F025
:100DAA00500122C322E9B4031C7851E2FE08E2FF93
:100DBA00C37850E29FEE6480F5F018E2648095F003
:070DCA00500122C322C322E5
:10064700783EEFF208ECF208EDF208EAF208EBF276
:100657007847741CF2780AE2FF783EE2FD7C0008D6
:10066700E2FA08E2FB08E2F58308E2F582784DE555
:1006770083F208E582F27843E2F58308E2F58278AF
:100687004FE583F208E582F27847E2F5827851E494
:10069700F208E582F2120D5A400E780AE204F2D30C
:1006A700940340B1E4F280ADC297C296C291C29062
:1006B700121778780AE2701F783EE2FF7846E26404
:1006C70001700218E27005FC7D0180047C007D004A
:1006D7001215E78FB0D297780AE2B40120783F0865
:1006E700E2FF7846E26402700218E27005FC7D01C1
:1006F70080047C007D001215E78FB0D296780AE25D
:10070700B40220784108E2FF7846E26403700218D9
:10071700E27005FC7D0180047C007D001215E78FE7
:10072700B0D291780AE2B40320784308E2FF784612
:10073700E26404700218E27005FC7D0180047C000D
:100747007D001215E78FB0D290780AE204F2D394B5
:05075700034002E4F282
:01075C00227A
:100DD1007811E2B40A03120EA57811E2700312161B
:100DE1001D7811E2B401031216807811E2B40203F6
:100DF100120F677811E2B403031214F67811E2B40A
:100E010004031214CE7811E2B4050312155A7811B5
:100E1100E2B406031215B07811E2B4650312141797
:100E21007811E2B46603120F067811E2B467031277
:0C0E310015947811E2B468031214A42296
:080003007F031216FBB202227A
:0D178500200209780B741FF2087440F22254
:10121A002002087811E2D394644005120DD1803976
:10122A00D3780CE2940A18E294004010120DD17897
:10123A000CE224FFF218E234FFF2801D780CE2641B
:10124A0005700218E26010780BE4F2087405F2C225
:0B125A0097C296C291C290D322C3221B
:1016FB00E47812F208F27811E26F60047811EFF2DD
:01170B0022BB
:05001E007811E2FF2251
:10144800780FE2FFC394145006E22405F2801AEFE5
:10145800C3943C5008780FE2240AF2800CEFC3943E
:0E146800E65006780FE22414F27F660216FBAF
:10147600780FE2FFD3943C4006E224ECF2801AEFA8
:10148600D394144008780FE224F6F2800CEFC3944C
:0E149600054006780FE224FBF27F660216FB8B
:1016AD00759850438E01538EFB75D7FE75D6FF434B
:0616BD008E1053A23F2233
:0817EA008F993099FDC299228C
:06180F00AE071217EA22E9
:030023000217B70A
:0B17B700309902C299309802C29832AB
:04181D0000000000C7
:0A0B9000C188861500000000000077
:10108300F208EFF2EE4440FE18F2FC08EFF2FD7FA7
:01109300025A
:0A109400785CEFF208ECF208EDF2D0
:10109E00087C007DFE7BFF7A18791D7E007F021290
:1010AE000598785DE2FC08E2FDEC08F2ED08F2121C
:1010BE00175C7F22121332785CE2FF121332785FD4
:0F10CE00E2FF1213327860E2FF1213320217AB07
:04118200785CEFF2B4
:10118600087C007DFE7BFF7A18791F7E007F0212A5
:10119600059812175C7F22121332785CE2FF121355
:1011A6003212175C7F23121332E4FF12136F785D3D
:1011B600EFF27F0112136F785EEFF21217AB785DD4
:0711C600E2FE08E2FDEDFF6F
:0111CD0022FF
:100BBF00EF1460141460241460342403704C7815FF
:100BCF007421F20874FC801B7815741DF20874B040
:100BDF00F2087423F208748CF2802F7815741DF2CA
:100BEF000874B0F208742AF2087430F2801CEB78A3
:100BFF001560087419F208746480067413F208748F
:100C0F0088F208741DF20874B0F2ED1460131460CA
:100C1F001914601F240370237819E4F208740AF280
:100C2F00227819E4F2087414F2227819E4F20874A5
:0C0C3F0005F2227819E4F2087402F22297
:1011CE00781AE2700218E260267815E2FC08E2FD59
:1011DE004C601C7818E2700218E270028011D3ED98
:1011EE009FEC9E500AC37818E29F18E29E5004E4CA
:1011FE00FEFF227815E2FC08E2FDC3EF9DFFEE9C98
:0C120E00FE7819E2FC08E2FD1205F22255
:10126500781AE2700218E2603B7816E2700218E222
:1012750060327818E2700218E2700280277819E26D
:10128500FC08E2FD1205E07815E2FC08E2FD2FFFFF
:10129500EC3EFEC37818E29F18E29E4007D3ED9F0F
:0812A500EC9E4004E4FEFF2270
:0112AD00221E
:10083E00E47856F208F208745FF208741AF212168F
:10084E0069785AEFF21217FA785BEFF27D037C00AB
:10085E007F021210947F327E0012171C7D057CC021
:10086E007F021210947F327E0012171C785BE2FD1D
:10087E00FF7856E2F208E24FF2785AE2B4041678A4
:10088E0056E2F208E2440CF208E25402F208E4F2F4
:10089E00FB7F03801B785AE2FD75F004A4FF7856A7
:1008AE00E245F0F208E24FF2AF05785BE2FD7B0124
:1008BE00120BBF7807E2FE08E2FF1211CEEF7806A8
:1008CE00C333CE33CED8F9FF7856E24EFE08E24F50
:1008DE00FF18EEF208EFF24410FF18EEF2FC08EFEC
:1008EE00F2FD7F031210947804E2FF7488FCEF444B
:1008FE00A0FD7F05121094E4FDFC7F061210947883
:0B090E0058E2FC08E2FD7F0702109495
:0D1792007F0A121182EE5403FE121265222E
:1012AE001211CE7857EEF208EFF27F03121182ADD3
:1012BE00077C00ED543FFD7857E25403FE08E278B8
:1012CE0006C333CE33CED8F9FFEC4EFCED4F4410AF
:1012DE00FD7F031210947F0A121182EE30E6F77F23
:0412EE000A0216FBDF
:0917CD007F05121182EE540FFF9A
:0117D60022F0
:041602007855EFF236
:101606007F05121182AD07AC06EC54F0FC7855E26A
:071616004CFC7F050210945B
:0409E6007857EFF25D
:1009EA007F031211827858EEF208EFF254EFFF18E3
:1009FA00EEF2FC08EFF2FD7F031210947F0212114F
:100A0A00827858EEF208EFF27857E2B4010608E26B
:100A1A00440280057858E254FDF208E2F27858E27E
:100A2A004401F208E2F230030A18E2F208E2547FC3
:100A3A00F280097858E2F208E24480F27858E2FC3F
:100A4A0008E2FD7F021210947F0A121182EE20E65C
:100A5A00097F0A7E0012171C80EE121792785AEE4E
:100A6A00F208EFF27F021211827858EEF208EFF2E2
:0F0A7A00EE54FEFE18121083785AE2FE08E2FFD7
:010A8900224A
:0B17C200EF24FF9207D2031209E62279
:0717F2007F0B121182EE13C0
:0117F90022CD
:10091900E47856F27815E2FE08E2FF780DEEF2FE71
:1009290008EFF2FF7807EEF208EFF2D2077F0A121A
:1009390016FB7815E2FE08E2FF1212AE7F327E0046
:1009490012171C12153C7817E2FE08E2FFC378085B
:10095900E29F18E29E5042C2037F011209E678071E
:10096900EEF208EFF27FF47E0112171C7F0A1211D2
:1009790082EE20E5241217F2501A7FF47E01121735
:100989001C7856E2FF7807E2FC08E2FD120FC778EF
:1009990056E204F212178580AD7856E27011FF1203
:1009A900179FE47807F208F27805F27809F22278BD
:1009B90056E2D394004003E214F27856E2FF12178C
:1009C9009FE47805F2FF12151A7807EEF208EFF2A4
:0C09D900780DEEF208EFF21212AED2011F
:0109E50022EF
:041134007855EFF209
:10113800D3940F4003740FF220080D7F021211821E
:101148007856EE121083D2087F051211827856EE77
:10115800F208EFF254F0FF18EEF208EFF27855E2D9
:10116800540FFDEF4DFF08EEF2FC08EFF2FD7F058E
:091178001210947855E27804F29B
:01118100224B
:1016C3007F02121182EE54BFFEC208AD07FC7F02F7
:0316D3000210946E
:0917D7007F0B121182EEC313FF17
:0117E00022E6
:10174C007F02121182AC06EF54FEFD7F0202109450
:100B9A00813600981E0000000000000000000000DE
:100BAA0000000000000000000000000000821C019C
:040BBA0090811B000B
:061808007836E2FFE4F275
:01180E0022B7
:1016E90053B2C353B1C3C297C296C291C29075B0E7
:0216F900FF22CE
:10002600E4FF1216E9FDED14600E14600F14601063
:1000360024037015A2B3800AA2B28006A2B480027D
:10004600A2B5E4337838F2800578387401F278384E
:10005600E26069ED75F006A42420F8E2604FE4F250
:10006600ED75F006A42422F8E2600EE4F2ED75F0D8
:1000760006A42423F8E4F28028ED75F006A4241ED5
:10008600F8E2FA08E2FBD39414EA94004013D3EBA7
:1000960094E8EA9403500A781BE27005ED0478367A
:1000A600F2ED75F006A42421F8E4F27F01ED75F077
:1000B60006A4241EF8E4F208F202015CED75F006CF
:1000C600A42420F8E2703304F2ED75F006A4241E91
:1000D600F8E4F208F2ED75F006A42422F8E4F278CA
:1000E6001BE26016ED75F006A42423F8E2700BED12
:1000F60075F006A42422F87401F2ED75F006A42426
:100106001FF9C3E394FF19E394FF5012ED75F0064F
:10011600A4241EF808E22401F218E23400F2ED7578
:10012600F006A4241FF9D3E394E819E394034026C8
:10013600ED75F006A42421F8E2701B781BE2701618
:10014600ED04FE75F00AA42E7836F2ED75F006A4DD
:100156002421F87401F20DED6404600302002CEF13
:100166006039E4781BF20804F2087490F2E4FFFDAB
:10017600ED75F006A42422F8E2600D7401A80508C6
:100186008002C333D8FC4FFF0DEDB404E3EF600BE0
:10019600781BF2087401F2087490F2E4FFFEFDED9C
:1001A60075F006A42420F8E2600E7401A805088004
:1001B60002C333D8FC4FFF0E0DEDB404E2EEC39438
:1001C600025003020299781BE2700CEFF2087401E8
:1001D600F2087490F28016C3781DE294FF18E29438
:1001E600FF500A08E22401F218E23400F2D3781D27
:1001F600E2940818E2940250030202A4E4F9FCFD1A
:1002060074017E00A805088005C333CE33CED8F925
:10021600FF781BE2FBEF5B600EE97005ED04F980E9
:1002260006EC7003ED04FC0DEDB404D4E9606FEC4C
:10023600606CE9C39C5009E975F00AA42CFF80079D
:10024600EC75F00AA429FF7836EFF2E4FD74017E1E
:1002560000A805088005C333CE33CED8F9FF781B36
:10026600E2FBEF5B6021ED75F006A42422F8740131
:10027600F2ED75F006A42423F87401F2ED75F0068C
:10028600A42421F87401F20DEDB404C1E4781CF243
:0E02960008F222E4781BF20804F2087490F2D9
:0102A4002237
:10163700538E7F5389F0438901758A66758CFCC286
:0A1647008DD28CD2A9D2A9D2AF2215
:1016D600538EBF53890FE4F58B758DB8C28FD28EAA
:0316E600D2AB2262
:03182100C28E2252
:03000000020C4BA4
:0C0C4B00787FE4F6D8FD758121020C9240
:1004C800E709F608DFFA8046E709F208DFFA803E16
:1004D80088828C83E709F0A3DFFA8032E309F60803
:1004E800DFFA8078E309F208DFFA807088828C836B
:1004F800E309F0A3DFFA806489828A83E0A3F6081F
:10050800DFFA805889828A83E0A3F208DFFA804CF8
:1005180080D280FA80C680D4806980F280338010CF
:1005280080A680EA809A80A880DA80E280CA803338
:1005380089828A83ECFAE493A3C8C582C8CCC583B0
:10054800CCF0A3C8C582C8CCC583CCDFE9DEE78080
:100558000D89828A83E493A3F608DFF9ECFAA9F0FF
:10056800EDFB2289828A83ECFAE0A3C8C582C8CC55
:10057800C583CCF0A3C8C582C8CCC583CCDFEADE6E
:10058800E880DB89828A83E493A3F208DFF980CCD0
:1005980088F0EF60010E4E60C388F0ED2402B404C9
:1005A8000050B9F582EB2402B4040050AF23234570
:0605B80082239005187378
:1005BE00F8BB010DE58229F582E5833AF583E8F073
:1005CE00225006E92582C8F622BBFE05E92582C81F
:0205DE00F22207
:1005E000EF8DF0A4A8F0CF8CF0A428CE8DF0A42E2F
:0205F000FE22E9
:1005F200BC000BBE0029EF8DF084FFADF022E4CCED
:10060200F875F008EF2FFFEE33FEEC33FCEE9DECB5
:10061200984005FCEE9DFE0FD5F0E9E4CEFD22EDFB
:10062200F8F5F0EE8420D21CFEADF075F008EF2F45
:10063200FFED33FD4007985006D5F0F222C398FD36
:050642000FD5F0EA22D3
:100C5700020E3DE493A3F8E493A34003F68001F268
:100C670008DFF48029E493A3F85407240CC8C3339E
:100C7700C4540F4420C8834004F456800146F6DF6D
:100C8700E4800B0102040810204080900B2BE47EC7
:100C9700019360BCA3FF543F30E509541FFEE49362
:100CA700A360010ECF54C025E060A840B8E493A329
:100CB700FAE493A3F8E493A3C8C582C8CAC583CA54
:100CC700F0A3C8C582C8CAC583CADFE9DEE780BE0C
:010BBE000036
:00000001FF
