:0418010000000022C1
:0F16F40000000075080B7509BED509FDD508FA71
:0117030022C3
:10170400EF1FAC0670011E4C60051216F480F12226
:10171400EF1FAC0670011E4C600512180180F12207
:030A7B00810300F4
:05001E00D205D20A2208
:1002A500784BEFF212176F7800E2FFD3940A5003F0
:1002B500020375784BE26401702BEFB40B1A121729
:1002C500AA780FEFF2BF0F04E4F28005780FE2047D
:1002D500F2780FE2FF1216127800E264156003024D
:1002E500045F02143C784BE26402702D7800E2B49E
:1002F5000B1A1217AA780FEFF27005740FF280052A
:10030500780FE214F2780FE2FF1216127800E26419
:1003150015600302045F02146A784BE2B403117896
:1003250000E2B41504E47803F2E4FF12156C803B97
:10033500784BE26404600302045F7800E2B40B03C7
:100345001205DF7800E2B41522780EE2D39400405E
:100355001278037401F2E47801F208F21216CF7FE5
:10036500018005E47803F2FF12156CE47800F222AF
:10037500784BE2B40C030217D1784BE2B40D10129E
:1003850017AA780FEFF27800740BF27F6580227858
:100395004BE2B40B1078007415F2E47803F21218EE
:1003A500097F66800C784BE2B40E09B200D2017F5A
:1003B5000502156C784BE2B421047F018008784B67
:1003C500E2B42C0DE4FF12179F7806EEF208EFF267
:1003D50022784BE2B416087F0412156C0216BC781D
:1003E5004BE2B401127F0412156C7804E2FFC3944A
:1003F5000F5067EF048016784BE2B402147F0412A5
:10040500156C7804E2FFD39400404FEF14FF0210FF
:1004150042784BE2640370157808E2FF7805E2B58F
:100425000704E4F280207805E204F28019784BE2B3
:10043500640470267805E270087808E27805F28091
:10044500057805E214F27805E2FF12150D780CEE39
:0B045500F208EFF212129912001E22B2
:1012DD00C206E47803F2121809120DEF9206E478B3
:1012ED0000F2780E741EF2121647D2AF7F2C7E01DB
:1012FD00121704120D0D12176F3006030205DF7859
:10130D0006E2FF08E2780CCFF208EFF27F0A121521
:01131D006C63
:01131E0022AC
:100D82001217C8802D300B171217BE7813EFF27F9F
:100D92000212156C78117403F20874E8F2C20B1295
:100DA20017EF784AEFF27803E2B4020B784AE2B422
:100DB2002CD31212DD80CE7803E2B4011D780EE24C
:100DC200C39401501578037402F2121809121734F1
:100DD200C297C296C291C29080AB784AE2FF60038A
:0D0DE2001202A5300A9F121498C20A8098D0
:03000B000209D80F
:1009D800C0E0C0F0C083C082C0D075D000C000C0E5
:0D09E80001C002C003C004C005C006C00766
:1009F5001217FC7830EFF21200267803E2C3940256
:100A050050511212055002804A7830E2FF640A60A4
:100A150026EFC39464503C781108E22401FFF218D4
:100A2500E23400FEF2C3EF94D0EE940740257F0A2E
:100A350012156CD20A801C300019781108E22401C5
:100A4500FFF218E23400FEF2C3EF94D0EE940740B3
:0B0A550002D20B758A66758CFCC28D06
:100A6000D007D006D005D004D003D002D001D000EA
:0B0A7000D0D0D082D083D0F0D0E03294
:03001B0002131FAE
:10131F00C0E0C0D075D000C000C006C0077803E29F
:10132F00B40122780108E22401FFF218E23400FE32
:10133F00F2C3EF94B8EE940B400B780EE214F278F0
:10134F0001E4F208F2D007D006D000D0D0D0E032BE
:080003000000000000000000F5
:100A7E00810405C100820621FC810500810800C1A8
:070A8E0005C102C104C10112
:0713D8007853EEF208EFF27A
:1013DF00087C007DFE7BFF7A0079037E007F02127E
:1013EF0005307853E2FE08E2FF7BFE7A0079551252
:0B13FF0010A17855E2FE08E2FDEDFFB2
:01140A0022BF
:04150D007852EFF22F
:10151100E275F002A42402FFE5F03406FE1213D8AE
:0D1521007806EEF208EFF27852E27805F25B
:01152E00229A
:1015C100784BEFF2E4FFFE121661784BE2FDE4FF87
:0B15D100FE121589784BE27804F2222C
:070FE3007852EEF208EFF274
:100FEA00087C007DFE7BFF7A0079057E007F021275
:100FFA0005307852E2FC08E2FDEC08F208EDF27FD7
:10100A00007E021216617854E2FD7F007E021215FC
:10101A00897855E2FD7F017E021215897805E2FD85
:10102A00F460077402FFFE1215897852E2FF08E2A3
:07103A007806CFF208EFF287
:01104100228C
:10152F007F007E04121661A203E433FD7F007E0468
:0F153F00121589A200E433FD7F027E0402158994
:1014980030050C7806E2FE08E2FF120FE3C20530C1
:1014A80002097804E2FF1215C1C2022004033001C8
:0914B8000712152FC204C2012223
:0717E1007F007E0602166185
:0A0B94007852EFF208ECF208EDF2DF
:100B9E0078577C007DFE7BFF7A0079077E007F020E
:100BAE0012053078597C007DFE7BFF7A0079097E34
:100BBE00007F021205307853E2FC08E2FDEC785912
:100BCE00F208EDF27852E275F002A42402FFE5F08D
:100BDE003406FE7855F208EFF27859E2FD121589C7
:100BEE007F047E001217047856E22401FF18E234C7
:100BFE0000FE785AE2FD1215897855E2FE08E2FFF2
:090C0E007BFE7A0079570210A167
:0C177C007808EFF2FD7F007E0602158960
:100DEF00E4FFFE1215DC7804EFF2D3940F40047F7A
:100DFF000180027F007804E2C3940050047E0180DA
:100E0F00027E00EE4F600578047405F27F007E04C9
:100E1F001215DCEF1392037F027E041215DCEF1321
:100E2F0092007F007E061215DC7808EFF2BFFF02FA
:100E3F00D3227F007E021213D87806EEF208EFF26B
:0D0E4F007402FFFE1215DC7805EFF2C322DD
:0D000E00E4F5C7F5C5F5C675C380F5C4223D
:1016610075C78075F50C75C5038FC4EEF5C375C6D6
:081671005A75C6A50002000E27
:1015DC0075C78075F50C75C5018FC4EEF5C375C65E
:0A15EC005A75C6A500AFC212000E2A
:0115F60022D2
:1010A100785BEEF208EFF208EBF208EAF208E9F2F7
:1010B10075C78075F50C75C501E408F27860E2FF2B
:1010C100C394035035785CE22FFF18E23400AD077A
:1010D100FC8DC4F5C375C65A75C6A50000785DE2DE
:1010E100FB08E2FA08E2F908E2F582758300E5C23D
:0D10F1001205567860E204F280C202000E83
:1015890075C78075F50C75C5028FC4EEF5C3AF0537
:0C1599008FC275C65A75C6A50002000E70
:0917C800E4F5CAF5C975BA9022D6
:0717E8007F0A7E00021714C6
:0F174400D2CCD2CD1217E8C2CC1217E8C2CD22F8
:0C178800C2CCD2CD1217E8D2CC0217E878
:10172400EF24FF92CC1217E8D2CD1217E8C2CD22D3
:10169000D2CC1217E8D2CD1217E8A2CC9209C2CD53
:0516A000A209E433FF84
:0116A5002222
:04135F00786EEFF2C3
:10136300087408F2786FE2FF14F2EF601E18E2309F
:10137300E704D2CC8002C2CC1217E8D2CD1217E810
:10138300C2CD786EE2FF25E0F280D9121690EF24E9
:08139300FF9208A208E433FFF9
:01139B00222F
:04139C00786EEFF286
:1013A000087408F2E408F2D2CC786FE2FF14F2EF8E
:1013B000601A08E2FF25E0F2D2CD1217E830CC0522
:1013C0007870E204F2C2CD1217E880DD786EE2FF99
:0713D0001217247870E2FF00
:0113D70022F3
:100A95005C007EC0F9A4B0999282F880907F88832B
:100AA500C6A1868E8CC1CE9189C712C8ABF7BF4D42
:100AB5000071407924301912027800107FC78982AD
:100AC5000C21FC82110000811006811300810F00AA
:0C0AD500810E1EC18C820A1F40810900A6
:0D17620053913C4392C3E4F5B175B2FF22F0
:1015F700ED4C600A74712FF582E434008008747E24
:0B1607002FF582E43400F583E0FF22A1
:1014E900783AE4300306F20874158004F208741699
:1014F900F208E4F20874FFF2FB7A00FD7C007F1722
:0415090012072D2276
:04092800AB07AA0669
:10092C007C277D1012058A7833EFF27C277D10AF7F
:10093C0003AE0212058A7E037FE8CFCDCFCECCCE9C
:10094C0012058A7832EFF27C037DE8AF03AE021217
:10095C00058A7E007F64CFCDCFCECCCE12058A78AF
:10096C0031EFF2AE02AF037C007D6412058A7E008B
:10097C007F0ACFCDCFCECCCE12058A7834EFF218C9
:10098C00E2C39401502018E2FD7C0018E2FB7A00CF
:10099C007834E2FF783AE4F208EFF208E4F20874F3
:1009AC0003F27F6480227833E2FF18E2FD7C0018AA
:1009BC00E2FB7A007834E2F582783AE4F208E582D8
:0B09CC00F208E4F2087403F212072D99
:0109D70022FD
:100EC1007806E2FC08E2FD780CE2FE08E2FFB505D7
:100ED10006EEB504028046300C1F780DE22401F2C3
:100EE10018E23400F2D308E2943018E2942A402642
:100EF1007421F20874FCF2801D780DE224FFF218CF
:100F0100E234FFF2C308E294FC18E2942150077422
:100F11002AF2087430F2780CE2FE08E2FF12092886
:010F210022AD
:1014C1007804E2FF75F00A84FD7C00EF75F00A8470
:1014D100E5F0FB7A00783AE4F20874FFF208E4F2EE
:0814E1000874FFF2FF02072D61
:100F83007813E2FF75F06484FEEF75F06484E5F096
:100F930075F00A847832F27813E275F00A847831B6
:100FA300E5F0F2EE601BFD7C0008E2FB7A0018E23C
:100FB300FF783AE4F208EFF208E4F20874FFF280F3
:100FC3001A7832E2FB7A0018E2FF783AE4F208EF8B
:0F0FD300F208E4F20874FFF2FD7C00FF12072D14
:010FE20022EC
:10140B00780FE2FF75F00A84A9F0EF75F06484E5BC
:10141B00F075F00A84FB7A00AF01783AE4F208EF3A
:10142B00F208E4F20874FFF27D197C007F170207C3
:01143B002D83
:100F2200780EE2FF75F06484FEEF75F06484E5F0FC
:100F320075F00A847832F2780EE275F00A8478311C
:100F4200E5F0F2EE601BFD7C0008E2FB7A0018E29D
:100F5200FF783AE4F208EFF208E4F20874FFF28054
:100F62001A7832E2FB7A0018E2FF783AE4F208EFEC
:100F7200F208E4F20874FFF2FD7C007F1612072DDE
:010F8200224C
:10167900E4783AF208F208F20874FFF27B187A006B
:07168900FD7C00FF02072DAC
:10162D00783AE4F208741AF208E4F20874FFF27BD7
:0A163D001A7A00FD7C00FF02072D61
:10154E00A200E4FF33783ACFF208EFF208E4F20893
:0E155E0074FFF2FB7A00FD7C007F1702072D60
:1015A500783AE4F208741BF208E4F20874FFF27B5F
:0C15B5001B7A007D1B7C007F1B02072DB1
:100C9600A907E97016D37849E29DEC6480F5F0184F
:100CA600E2648095F04002D322C322E9B40116D350
:100CB6007849E29BEA6480F5F018E2648095F0409A
:100CC60002D322C322E9B4021C7848E2FE08E2FFFE
:100CD600C37845E29FEE6480F5F018E2648095F0F3
:100CE600500122C322E9B4031C7848E2FE08E2FF61
:100CF600C37847E29FEE6480F5F018E2648095F0D1
:070D0600500122C322C322A9
:10072D007835EFF208ECF208EDF208EAF208EBF298
:10073D00783E741CF27809E2FF7835E2FD7C000802
:10074D00E2FA08E2FB08E2F58308E2F5827844E577
:10075D0083F208E582F2783AE2F58308E2F58278D1
:10076D0046E583F208E582F2783EE2F5827848E4C8
:10077D00F208E582F2120C96400E7809E204F2D3EB
:10078D00940340B1E4F280ADC297C296C291C2907B
:10079D001217627809E2701F7835E2FF783DE26446
:1007AD0001700218E27005FC7D0180047C007D0063
:1007BD001215F78FB0D2977809E2B4012078360878
:1007CD00E2FF783DE26402700218E27005FC7D01E3
:1007DD0080047C007D001215F78FB0D2967809E267
:1007ED00B40220783808E2FF783DE2640370021805
:1007FD00E27005FC7D0180047C007D001215F78FF1
:10080D00B0D2917809E2B40320783A08E2FF783D3E
:10081D00E26404700218E27005FC7D0180047C0026
:10082D007D001215F78FB0D2907809E204F2D394BF
:05083D00034002E4F29B
:010842002293
:10115A007810E2B40A03120EC17810E27003121674
:10116A002D7810E2B401031216797810E2B4020362
:10117A00120F837810E2B403031214E97810E2B470
:10118A0004031214C17810E2B4050312154E781044
:10119A00E2B406031215A57810E2B4650312140B23
:0A11AA007810E2B46603120F22224F
:0817D1007F0312156CB2032224
:0D176F00200309780A741FF2087440F2226A
:101205002003087810E2D39464400512115A8039FE
:10121500D3780BE2940A18E29400401012115A7820
:101225000BE224FFF218E234FFF2801D780BE26432
:1012350005700218E26010780AE4F2087405F2C23B
:0B12450097C296C291C290D322C32230
:10156C00E47811F208F27810E26F6010EFB4040224
:0D157C00D202EFB40302D2047810EFF22285
:0517FC007810E2FF225D
:10143C00780EE2FFC394145006E22405F2801AEFF2
:10144C00C3943C5008780EE2240AF2800CEFC3944B
:0E145C00E65006780EE22414F27F6602156C4C
:10146A00780EE2FFD3943C4006E224ECF2801AEFB5
:10147A00D394144008780EE224F6F2800CEFC39459
:0E148A00054006780EE224FBF27F6602156C28
:1016A600759850438E01538EFB75D7FE75D6FF4352
:0616B6008E1053A23F223A
:0817D9008F993099FDC299229D
:0617F600AE071217D92214
:030023000217942D
:0B179400309902C299309802C29832CE
:0418050000000000DF
:020AE100C18DC5
:0A1250007859EFF208ECF208EDF215
:10125A00087C007DFE7BFF7A1879057E007F0212EA
:10126A000530785AE2FC08E2FDEC08F2ED08F212C9
:10127A0017447F2212135F7859E2FF12135F785CDA
:0F128A00E2FF12135F785DE2FF12135F02178815
:0511B400F208F27F03C8
:0411B900786BEFF26E
:1011BD00087C007DFE7BFF7A1879077E007F021286
:1011CD0005301217447F2212135F786BE2FF121362
:1011DD005F1217447F2312135FE4FF12139C786C88
:1011ED00EFF27F0112139C786DEFF2121788786C75
:0711FD00E2FE08E2FDEDFF38
:0112040022C7
:10084300E47861F208F208F208F2081211B47E00AB
:10085300EF540C7802CEC313CE13D8F97968F3EEB4
:1008630019F37F031211B9E47869F2EF540308F224
:100873007867E2FE08E2FFEE7064EF146014146020
:10088300241460342403705678617421F20874FCD4
:10089300801B7861741DF20874B0F2087423F208A7
:1008A300748CF2803B7861741DF20874B0F20874A2
:1008B3002AF2087430F280287F071211B9EEC313AD
:1008C300786130E0087419F208746480067413F2D6
:1008D300087488F208741DF20874B0F28002803E36
:1008E3007869E2FE08E2FFEE7034EF1460141460DE
:1008F3001B146022240370267865E4F208740AF25C
:10090300801C7865E4F2087414F280127865E4F2CE
:10091300087405F280087865E4F2087402F27BFE3D
:040923007A0079617C
:0109270022AD
:100D0D007D037C007F021212507F327E0012170489
:100D1D007D057CC07F021212507F327E00121704B7
:100D2D007807E22404FF18E234DEFE7C007D0A120F
:100D3D00058AEF7806C333CE33CED8F9AC0644100E
:100D4D00FD7F031212507804E2FF7486FCEF44A07D
:100D5D00FD7F05121250E4FDFC7F061212507D1A24
:100D6D007C5F7F071212507806E2FF08E2780CCF05
:050D7D00F208EFF22274
:070E5C007859EEF208EFF2F5
:100E6300120843785B7C007DFE7E007F061205300E
:100E7300785BE2FC08E2FD4C700C785EE2700218CD
:100E8300E27003FEFF227859E2FA08E2FBC39DEA0F
:100E93009C400E785DE2FE08E2FFD3EB9FEA9E40A2
:100EA30004E4FEFF22785BE2FE08E2FFC3EB9FFF50
:0D0EB300EA9EFE785FE2FC08E2FD12058A6F
:010EC000220F
:0710FE007857EEF208EFF253
:1011050012084378597C007DFE7E007F061205306B
:101115007859E2FA08E2FB4A700C785CE270021832
:10112500E27003FEFF22785DE2FC08E2FD7857E2FB
:10113500FE08E2FF120578EB2FFFEA3EFEC3785C5E
:10114500E29F18E29E4009D318E29F18E29E4004F0
:04115500E4FEFF2293
:011159002273
:0E175300E4FE7F0A1211B9EE5403FE1210FEDE
:011761002265
:10129900120E5C7857EEF208EFF27F031211B9AD26
:1012A900077C00ED543FFD7857E25403FE08E278CD
:1012B90006C333CE33CED8F9FFEC4EFCED4F4410C4
:1012C900FD7F031212507F0A1211B9EE30E6F77F43
:0412D9000A02156C84
:0917AA007F051211B9EE540FFF86
:0117B3002213
:04161200784CEFF22F
:101616007F051211B9AD07AC06EC54F0FC784CE22C
:071626004CFC7F050212508D
:040C17007852EFF22E
:100C1B00E478551211B4EF54EFFDAC067F031212BA
:100C2B00507F021211B97852E2B40106EE4402FE73
:100C3B008004EE54FDFEEE4401FEEF300705547FB9
:100C4B00FF80034480FFAD07AC067F021212507F7A
:100C5B000A1211B9EE20E61E7F0A7E0012170478E5
:100C6B005508E22401FFF218E23400FEF2D3EF94B0
:100C7B00C8EE940040D91217537853EEF208EFF2F6
:0A0C8B001212997853E2FE08E2FF0E
:010C9500223C
:0B179F00EF24FF920CD207120C17225F
:0917B4007F0B1211B9EE5401FF84
:0117BD002209
:1005DF00E4784CF208F2FE7F031211B97E00EF545B
:1005EF000C7802CEC313CE13D8F9FF4E700A784E93
:1005FF007421F20874FC8027EF64014E7013784E5B
:10060F00741DF20874B0F2087423F208748CF2802F
:10061F0046EF64024E7013784E741DF20874B0F2F8
:10062F0008742AF2087430F2802DEF64034E6003D1
:10063F0002072C7F071211B9EEC313784E30E00872
:10064F007419F208746480067413F2087488F2083F
:10065F00741DF20874B0F2784EE2FE08E2FF780CD7
:10066F00EEF2FE08EFF2FF7806EEF208EFF2D20C90
:10067F007F0A12156C784EE2FE08E2FF1212997F84
:10068F00327E001217041217E17850E2FE08E2FFE3
:10069F007807E26F700318E26E6041C2077F0112A4
:1006AF000C177806EEF208EFF27FF47E01121704B2
:1006BF001217B4EF60217FF47E01121704784C08F3
:1006CF00E2FF7806E2FC08E2FD120B94784DE2247B
:1006DF0001F218E23400F212176F80ADD3784DE2B9
:1006EF00940018E29400400A08E224FFF218E23462
:1006FF00FFF2784C08E2FF12177CE47805F2FF1244
:10070F00150D7806EEF208EFF2780CEEF208EFF224
:0D071F001212997806E2FE08E2FF120FE3C5
:01072C0022AA
:04104200784CEFF205
:10104600D3940F4003740FF2200D1E7F021211B9C4
:10105600784DEEF208EFF2EE4440FE18F2FC08EF8F
:10106600F2FD7F02121250D20D7F051211B9784D92
:10107600EEF208EFF254F0FF18EEF208EFF2784CB9
:10108600E2540FFDEF4DFF08EEF2FC08EFF2FD7F94
:0A10960005121250784CE27804F2C3
:0110A000222D
:1016BC007F021211B9EE54BFFEC20DAD07FC7F02C2
:0316CC00021250B7
:0917BE007F0B1211B9EEC313FFF9
:0117C70022FF
:101734007F021211B9AC06EF54FEFD7F0202125073
:100AE300812F0098170000000000000000000000A4
:100AF300000000000000000000000000008215015B
:040B030090811400C9
:0617EF00782FE2FFE4F296
:0117F50022D1
:1016E20053B2C353B1C3C297C296C291C29075B0EE
:0216F200FF22D5
:10002600E4FF1216E2FDED14600E14600F1460106A
:1000360024037015A2B3800AA2B28006A2B480027D
:10004600A2B5E4337831F2800578317401F2783163
:10005600E26069ED75F006A42419F8E2604FE4F257
:10006600ED75F006A4241BF8E2600EE4F2ED75F0DF
:1000760006A4241CF8E4F28028ED75F006A42417E3
:10008600F8E2FA08E2FBD39414EA94004013D3EBA7
:1000960094E8EA9403500A7814E27005ED04782F88
:1000A600F2ED75F006A4241AF8E4F27F01ED75F07E
:1000B60006A42417F8E4F208F202015CED75F006D6
:1000C600A42419F8E2703304F2ED75F006A424179F
:1000D600F8E4F208F2ED75F006A4241BF8E4F278D1
:1000E60014E26016ED75F006A4241CF8E2700BED20
:1000F60075F006A4241BF87401F2ED75F006A4242D
:1001060018F9C3E394FF19E394FF5012ED75F00656
:10011600A42417F808E22401F218E23400F2ED757F
:10012600F006A42418F9D3E394E819E394034026CF
:10013600ED75F006A4241AF8E2701B7814E2701626
:10014600ED04FE75F00AA42E782FF2ED75F006A4E4
:10015600241AF87401F20DED6404600302002CEF1A
:100166006039E47814F20804F2087490F2E4FFFDB2
:10017600ED75F006A4241BF8E2600D7401A80508CD
:100186008002C333D8FC4FFF0DEDB404E3EF600BE0
:100196007814F2087401F2087490F2E4FFFEFDEDA3
:1001A60075F006A42419F8E2600E7401A80508800B
:1001B60002C333D8FC4FFF0E0DEDB404E2EEC39438
:1001C6000250030202997814E2700CEFF2087401EF
:1001D600F2087490F28016C37816E294FF18E2943F
:1001E600FF500A08E22401F218E23400F2D378162E
:1001F600E2940818E2940250030202A4E4F9FCFD1A
:1002060074017E00A805088005C333CE33CED8F925
:10021600FF7814E2FBEF5B600EE97005ED04F980F0
:1002260006EC7003ED04FC0DEDB404D4E9606FEC4C
:10023600606CE9C39C5009E975F00AA42CFF80079D
:10024600EC75F00AA429FF782FEFF2E4FD74017E25
:1002560000A805088005C333CE33CED8F9FF78143D
:10026600E2FBEF5B6021ED75F006A4241BF8740138
:10027600F2ED75F006A4241CF87401F2ED75F00693
:10028600A4241AF87401F20DEDB404C1E47815F251
:0E02960008F222E47814F20804F2087490F2E0
:0102A4002237
:10164700538E7F5389F0438901758A66758CFCC276
:0A1657008DD28CD2A9D2A9D2AF2205
:1016CF00538EBF53890FE4F58B758DB8C28FD28EB1
:0316DF00D2AB2269
:03180900C28E226A
:03000000020B08E8
:0C0B0800787FE4F6D8FD758121020B4FC8
:10046000E709F608DFFA8046E709F208DFFA803E7E
:1004700088828C83E709F0A3DFFA8032E309F6086B
:10048000DFFA8078E309F208DFFA807088828C83D3
:10049000E309F0A3DFFA806489828A83E0A3F60887
:1004A000DFFA805889828A83E0A3F208DFFA804C61
:1004B00080D280FA80C680D4806980F28033801038
:1004C00080A680EA809A80A880DA80E280CA8033A1
:1004D00089828A83ECFAE493A3C8C582C8CCC58319
:1004E000CCF0A3C8C582C8CCC583CCDFE9DEE780E9
:1004F0000D89828A83E493A3F608DFF9ECFAA9F068
:10050000EDFB2289828A83ECFAE0A3C8C582C8CCBD
:10051000C583CCF0A3C8C582C8CCC583CCDFEADED6
:10052000E880DB89828A83E493A3F208DFF980CC38
:1005300088F0EF60010E4E60C388F0ED2402B40431
:100540000050B9F582EB2402B4040050AF232345D8
:0605500082239004B07349
:10055600F8BB010DE58229F582E5833AF583E8F0DB
:10056600225006E92582C8F622BBFE05E92582C887
:02057600F2226F
:10057800EF8DF0A4A8F0CF8CF0A428CE8DF0A42E97
:02058800FE2251
:10058A00BC000BBE0029EF8DF084FFADF022E4CC55
:10059A00F875F008EF2FFFEE33FEEC33FCEE9DEC1E
:1005AA00984005FCEE9DFE0FD5F0E9E4CEFD22ED64
:1005BA00F8F5F0EE8420D21CFEADF075F008EF2FAE
:1005CA00FFED33FD4007985006D5F0F222C398FD9F
:0505DA000FD5F0EA223C
:100B1400020D82E493A3F8E493A34003F68001F268
:100B240008DFF48029E493A3F85407240CC8C333E2
:100B3400C4540F4420C8834004F456800146F6DFB1
:100B4400E4800B0102040810204080900A7BE47EBC
:100B5400019360BCA3FF543F30E509541FFEE493A6
:100B6400A360010ECF54C025E060A840B8E493A36D
:100B7400FAE493A3F8E493A3C8C582C8CAC583CA98
:100B8400F0A3C8C582C8CAC583CADFE9DEE780BE50
:010B070000ED
:00000001FF
