:041CA400000000221A
:0F1BA10000000075080B7509BED509FDD508FABF
:011BB0002212
:101BB100EF1FAC0670011E4C6005121BA180F122C3
:101BC100EF1FAC0670011E4C6005121CA480F122AF
:071014008105008200FFFFCF
:071C8200E47800F208F222F1
:10154200E47857F27805F2121CAC120EBC7857EF11
:10155200F2E47802F27811741EF2121AB6D2AF785F
:1015620057E2B401097802741FF27F6880257F2C4C
:101572007E01121BB1120C48121C0D7857E2B40204
:1015820003120D237809E2FF08E2780FCFF208EF89
:06159200F27F0A121B901B
:011598002230
:100600007856EFF2121C0D7802E2FFD3940A5003E1
:1006100002071E7856E264017040EFB40B1A121CF8
:10062000557812EFF2BF0F04E4F280057812E2046D
:10063000F27812E2FF121A817802E2B4150312185E
:10064000AB7802E2641F600302083A7808E2C394C0
:1006500004400302083AE204F2227856E26402708F
:10066000427802E2B40B1A121C557812EFF27005B0
:10067000740FF280057812E214F27812E2FF121A77
:10068000817802E2B415031218D97802E2641F607F
:100690000302083A7808E2D39400500302083AE2D1
:1006A00014F2227856E2B4031B7802E2B41504E493
:1006B0007805F27802E2641F700302083AE4FF1240
:1006C0001B9080557856E26404600302083A780271
:1006D000E2B40B03120D237802E2B415227811E282
:1006E000D39400401278057401F2E47803F208F222
:1006F000121B6B7F018005E47805F2FF121B9078D6
:1007000002E2B41F0512199F800C7802E2B4290995
:10071000121BE1121B16021542E47802F2227856EF
:10072000E2B40B1078027415F2E47805F2121CACF6
:100730007F66806A7856E2B40C061200030208371E
:100740007856E2B40D10121C557812EFF27802744C
:100750000BF27F6580487856E2B40E0AB2097F0535
:10076000121B900208377856E2B416087F04121B59
:1007700090021B587856E2B421047F018008785615
:10078000E2B42C0DE4FF121C4A7809EEF208EFF2F5
:10079000227856E2B4220A78027429F27F67021B9B
:1007A000907856E2B401197F04121B907806E2FF9C
:1007B000C3940F400302083AEF04FF1215998077A3
:1007C0007856E2B402167F04121B907806E2FFD33B
:1007D00094004066EF14FF121599805B7856E2642E
:1007E000037028780BE2FF60517807E2B50704E454
:1007F000F280057807E204F27807E2FF12197D78AB
:100800000FEEF208EFF2121713802C7856E2640410
:100810007028780BE2FF60227807E27004EFF28024
:10082000057807E214F27807E2FF12197D780FEEDF
:0B083000F208EFF2121713121C8222D4
:1012A500121C69802D300B17121C5F7816EFF27F28
:1012B50002121B9078147403F20874E8F2C20B1240
:1012C5001C977855EFF27805E2B4020B7855E2B435
:1012D5002CD312154280CE7805E2B4011D7811E2B7
:1012E500C39401501578057402F2121CAC121BE16F
:1012F500C297C296C291C29080AB7855E2FF60A5B5
:0513050012060080A0AB
:03000B00020DF1F2
:100DF100C0E0C0F0C083C082C0D075D000C000C0C8
:0D0E010001C002C003C004C005C006C00748
:100E0E0012001E7839EFF27800E2FE08E2FFC3947A
:100E1E00D0EE940F500BE22401F218E23400F2806F
:100E2E0010BE0F0DBFD00A121810780074FFF20812
:100E3E00F21203817805E2C39402504F12167F50CE
:100E4E000280487839E2FF640A6024EFC39464504C
:100E5E003A781408E22401FFF218E23400FEF2C3DD
:100E6E00EF94D0EE940740237F0A121B90801C3023
:100E7E000919781408E22401FFF218E23400FEF298
:100E8E00C3EF94D0EE94074002D20B758A66758C30
:030E9E00FCC28D06
:100EA100D007D006D005D004D003D002D001D000A5
:0B0EB100D0D0D082D083D0F0D0E0324F
:03001B0002175772
:10175700C0E0C0D075D000C000C006C0077805E261
:10176700B40122780308E22401FFF218E23400FEF4
:10177700F2C3EF94B8EE940B400B7811E214F278B1
:1017870003E4F208F2D007D006D000D0D0D0E03280
:1019DB00696E6974206D6F64653A202562752025E8
:0C19EB0064202025640D0A0000000000AC
:10101B00810800810605C18AC109820921FC81076B
:04102B0000810B0035
:07184700785BEEF208EFF2FE
:10184E00087C007DFE7BFF7A1979F37E007F021201
:10185E00090B785BE2FE08E2FF7BFE7A00795D12EF
:0B186E00148B785DE2FE08E2FDEDFF48
:01187900224C
:04197D00785AEFF2B3
:10198100E275F002A42402FFE5F03406FE121847C6
:0D1991007809EEF208EFF2785AE27807F2DA
:01199E002226
:10181000E4FFFE121AD07806E2FDE4FFFE1219F78B
:101820007807E2FD7F037E001219F73009047F007C
:1018300080027F02300A047E0180027E00EE4FFDAE
:071840007F047E000219F78E
:071C8900785EEFF27F0222FA
:101AE8007F017E06121A4BEFB4FF037F0022EF54EA
:061AF8001C1313543FFF14
:011AFE0022C5
:10199F007F007E06121AD07808E2FF121C897808A1
:0E19AF00E225E025E04FFD7F017E060219F7DC
:0C1C2700780BEFF2FD7F007E060219F73B
:0A142C007859EFF208ECF208EDF237
:10143600785E7C007DFE7BFF7A1979F57E007F025F
:1014460012090B785AE2FC08E2FDEC785EF208ED30
:10145600F27859E275F002A42402FFE5F03406FEA4
:10146600785CF208EFF208E2FD1219F77F047E00BD
:10147600121BB1785DE22401FF18E23400FE785FAA
:05148600E2FD0219F770
:100EBC007F017E06121A4B7858EFF27F047E0012E7
:100ECC001A4B7859EFF218E2FEB4FF07E47808F2F7
:100EDC007F0122EE541C1313543F7808F2E4FFFEFA
:100EEC00121A4B7806EFF2D3940F40047F01800264
:100EFC007F007806E2C3940050047E0180027E00DD
:100F0C00EE4F600578067405F27859E2FF13920AE9
:100F1C00EF30E103C38001D392097BFF7A1979DBAF
:100F2C007859E2785DF2A20AE4FF3308CFF208EFB9
:100F3C00F2A209E4FF3308CFF208EFF21200887F27
:100F4C00007E06121A4B780BEFF2F46003E270038A
:100F5C007F02227F037E00121A4B7807EFF21219E0
:030F6C007D7F0086
:010F6F00225F
:101B160078067405F2D20AD209E4FFFE121AD07FC3
:061B2600007E06021AD049
:0D000E00E4F5C7F5C5F5C675C380F5C4223D
:101AD00075C78075F50C75C5038FC4EEF5C375C663
:081AE0005A75C6A50002000EB4
:101A4B0075C78075F50C75C5018FC4EEF5C375C6EA
:0A1A5B005A75C6A500AFC212000EB6
:011A6500225E
:10148B00785FEEF208EFF208EBF208EAF208E9F205
:10149B0075C78075F50C75C501E408F27864E2FF39
:1014AB00C3940350357860E22FFF18E23400AD0788
:1014BB00FC8DC4F5C375C65A75C6A500007861E2EC
:1014CB00FB08E2FA08E2F908E2F582758300E5C24F
:0D14DB001209317864E204F280C202000EB2
:1019F70075C78075F50C75C5028FC4EEF5C3AF05C5
:0C1A07008FC275C65A75C6A50002000EFD
:091C6900E4F5CAF5C975BA902230
:071C90007F0A7E00021BC168
:0F1BF100D2CCD2CD121C90C2CC121C90C2CD22ED
:0C1C3300C2CCD2CD121C90D2CC021C906E
:101BD100EF24FF92CC121C90D2CD121C90C2CD22C8
:101B2C00D2CC121C90D2CD121C90A2CC9202C2CD5F
:051B3C00A202E433FFEA
:011B41002281
:041797007863EFF292
:10179B00087408F27864E2FF14F2EF601E18E2306E
:1017AB00E704D2CC8002C2CC121C90D2CD121C907A
:1017BB00C2CD7863E2FF25E0F280D9121B2CEF2417
:0817CB00FF9201A201E433FFCB
:0117D30022F3
:0417D4007861EFF257
:1017D800087408F2E408F2D2CC7862E2FF14F2EF5F
:1017E800601A08E2FF25E0F2D2CD121C9030CC0539
:1017F8007863E204F2C2CD121C9080DD7861E2FFCA
:07180800121BD17863E2FF1F
:01180F0022B6
:10102F005C0076C0F9A4B0999282F880907F888393
:10103F00C6A1868E8CC1CE9189C712C8ABF7BF4DA2
:10104F000069407924301912027800107FC7898215
:10105F000F21FC82140000811306811600811200FB
:0C106F0081111EC18C820D1F40810C00FD
:0D1C000053913C4392C3E4F5B175B2FF224D
:101A6600ED4C600A74692FF582E4340080087476C0
:0B1A76002FF582E43400F583E0FF222E
:101959007845E4300A06F20874158004F208741612
:10196900F208E4F20874FFF2FB7A00FD7C007F17AD
:04197900120A5122DB
:070B6700783AEEF208EFF20C
:100B6E004E701B7845F2087410F208E4F20874FF18
:100B7E00F27B107A007D107C007F10020C44783AD4
:100B8E00E2FA08E2FB7C277D10FFAE0212096578BF
:100B9E003EEFF27C277D10AF03AE021209657E0395
:100BAE007FE8CFCDCFCECCCE120965783DEFF2786F
:100BBE003AE2FA08E2FB7C037DE8FFAE0212096519
:100BCE007E007F64CFCDCFCECCCE120965783CEFC0
:100BDE00F27C007D64AF03AE021209657E007F0ACF
:100BEE00CFCDCFCECCCE120965783FEFF218E2C34F
:100BFE009401502018E2FD7C0018E2FB7A00783F49
:100C0E00E2FF7845E4F208EFF208E4F2087403F22A
:100C1E007F648022783EE2FF18E2FD7C0018E2FB42
:100C2E007A00783FE2F5827845E4F208E582F20830
:090C3E00E4F2087403F2120A51F9
:010C4700228A
:10130A007809E2FC08E2FD780FE2FE08E2FFB50583
:10131A0006EEB504028046300C1F7810E22401F272
:10132A0018E23400F2D308E2943018E2942A4026F4
:10133A007421F20874FCF2801D7810E224FFF2187E
:10134A00E234FFF2C308E294FC18E29421500774D5
:10135A002AF2087430F2780FE2FE08E2FF120B67F5
:01136A002260
:101931007806E2FF75F00A84FD7C00EF75F00A84F9
:10194100E5F0FB7A007845E4F20874FFF208E4F26E
:081951000874FFF2FF020A51C5
:1013CC007816E2FF75F06484FEEF75F06484E5F046
:1013DC0075F00A84783BF27816E275F00A84783A54
:1013EC00E5F0F2EE601BFD7C0008E2FB7A0018E2EF
:1013FC00FF7845E4F208EFF208E4F20874FFF2809B
:10140C001A783BE2FB7A0018E2FF7845E4F208EF29
:0F141C00F208E4F20874FFF2FD7C00FF120A519F
:01142B00229E
:10187A007812E2FF75F00A84A9F0EF75F06484E546
:10188A00F075F00A84FB7A00AF017845E4F208EFBC
:10189A00F208E4F20874FFF27D197C007F17020A4D
:0118AA0051EC
:10136B007811E2FF75F06484FEEF75F06484E5F0AC
:10137B0075F00A84783BF27811E275F00A84783ABA
:10138B00E5F0F2EE601BFD7C0008E2FB7A0018E250
:10139B00FF7845E4F208EFF208E4F20874FFF280FC
:1013AB001A783BE2FB7A0018E2FF7845E4F208EF8B
:1013BB00F208E4F20874FFF2FD7C007F16120A516A
:0113CB0022FF
:101A13007845E4F208741BF208E4F20874FFF27BE1
:0C1A23001B7A007D1A7C007F1A020A5119
:101907007808E2FF75F00A84FEEF75F00A84AFF0FD
:10191700EEFB7A007845E4F208EFF208E4F2087487
:0A192700FFF2FD7C007F0C020A5164
:101AFF00E47845F208F208F20874FFF27B187A00D6
:071B0F00FD7C00FF020A51FA
:101A9C007845E4F208741AF208E4F20874FFF27B59
:0A1AAC001A7A00FD7C00FF020A51C7
:1019BD00A209E4FF337845CFF208EFF208E4F2080C
:0E19CD0074FFF2FB7A00FD7C007F17020A51C6
:101A2F007845E4F208741BF208E4F20874FFF27BC5
:0C1A3F001B7A007D1B7C007F1B020A51FB
:1011C200A907E97016D37854E29DEC6480F5F01813
:1011D200E2648095F04002D322C322E9B40116D31F
:1011E2007854E29BEA6480F5F018E2648095F0405E
:1011F20002D322C322E9B4021C7853E2FE08E2FFC2
:10120200C37850E29FEE6480F5F018E2648095F0B6
:10121200500122C322E9B4031C7853E2FE08E2FF24
:10122200C37852E29FEE6480F5F018E2648095F094
:07123200500122C322C32278
:100A51007840EFF208ECF208EDF208EAF208EBF266
:100A61007849741CF2780CE2FF7840E2FD7C0008C2
:100A7100E2FA08E2FB08E2F58308E2F582784FE545
:100A810083F208E582F27845E2F58308E2F582789F
:100A910051E583F208E582F27849E2F5827853E480
:100AA100F208E582F21211C2400E780CE204F2D390
:100AB100940340B1E4F280ADC297C296C291C29054
:100AC100121C00780CE2701F7840E2FF7848E26463
:100AD10001700218E27005FC7D0180047C007D003C
:100AE100121A668FB0D297780CE2B40120784108CF
:100AF100E2FF7848E26402700218E27005FC7D01B1
:100B010080047C007D00121A668FB0D296780CE2C8
:100B1100B40220784308E2FF7848E26403700218C7
:100B2100E27005FC7D0180047C007D00121A668F55
:100B3100B0D291780CE2B40320784508E2FF7848FE
:100B4100E26404700218E27005FC7D0180047C00FF
:100B51007D00121A668FB0D290780CE204F2D39421
:050B6100034002E4F274
:010B6600226C
:101239007813E2B40A0312130A7813E27003121A3C
:101249009C7813E2B40103121AFF7813E2B4020383
:101259001213CC7813E2B403031219597813E2B4C8
:1012690004031219317813E2B405031219BD781376
:10127900E2B40603121A2F7813E2B4650312187A3E
:101289007813E2B4660312136B7813E2B46703129E
:0C1299001A137813E2B46803121907223C
:080003007F03121B90B20A22D8
:0D1C0D00200A09780D741FF2087440F222BD
:10167F00200A087813E2D394644005121239803996
:10168F00D3780EE2940A18E29400401012123978BF
:10169F000EE224FFF218E234FFF2801D780EE264AE
:1016AF0005700218E26010780DE4F2087405F2C2BA
:0B16BF0097C296C291C290D322C322B2
:101B9000E47814F208F27813E26F60047813EFF23D
:011BA0002222
:05001E007813E2FF224F
:1018AB007811E2FFC394145006E22405F2801AEF7C
:1018BB00C3943C50087811E2240AF2800CEFC394D5
:0E18CB00E650067811E22414F27F66021B90AC
:1018D9007811E2FFD3943C4006E224ECF2801AEF3F
:1018E900D3941440087811E224F6F2800CEFC394E3
:0E18F9000540067811E224FBF27F66021B9088
:101B4200759850438E01538EFB75D7FE75D6FF43B1
:061B52008E1053A23F2299
:081C72008F993099FDC29922FF
:061C9E00AE07121C7222C9
:03002300021C3F7D
:0B1C3F00309902C299309802C298321E
:041CA8000000000038
:0A107B00C18D861700000000000080
:1014E800F208EFF2EE4440FE18F2FC08EFF2FD7F3E
:0114F80002F1
:0A14F900785EEFF208ECF208EDF265
:10150300087C007DFE7BFF7A1C79A87E007F021297
:10151300090B785FE2FC08E2FDEC08F2ED08F21239
:101523001BF17F22121797785EE2FF1217977861FB
:0F153300E2FF1217977862E2FF121797021C333C
:0415E700785EEFF249
:1015EB00087C007DFE7BFF7A1C79AA7E007F0212AD
:1015FB00090B121BF17F22121797785EE2FF12176D
:10160B0097121BF17F23121797E4FF1217D4785F01
:10161B00EFF27F011217D47860EFF2121C33785F70
:07162B00E2FE08E2FDEDFF05
:011632002295
:1010AA00EF1460141460241460342403704C78170D
:1010BA007421F20874FC801B7817741DF20874B04E
:1010CA00F2087423F208748CF2802F7817741DF2D8
:1010DA000874B0F208742AF2087430F2801CEB78B3
:1010EA001760087419F208746480067413F208749D
:1010FA0088F208741DF20874B0F2ED1460131460DB
:10110A001914601F24037023781BE4F208740AF28E
:10111A0022781BE4F2087414F222781BE4F20874B1
:0C112A0005F222781BE4F2087402F222A5
:10163300781CE2700218E260267817E2FC08E2FDEB
:101643004C601C781AE2700218E270028011D3ED2C
:101653009FEC9E500AC3781AE29F18E29E5004E45E
:10166300FEFF227817E2FC08E2FDC3EF9DFFEE9C2C
:0C167300FE781BE2FC08E2FD1209652273
:1016CA00781CE2700218E2603B7818E2700218E2B5
:1016DA006032781AE2700218E270028027781BE200
:1016EA00FC08E2FD1209537817E2FC08E2FD2FFF1D
:1016FA00EC3EFEC3781AE29F18E29E4007D3ED9FA4
:08170A00EC9E4004E4FEFF2206
:0117120022B4
:100C4800E47858F208F208745FF208741AF2121A7B
:100C5800E8785CEFF2121C89785DEFF27D037C0086
:100C68007F021214F97F327E00121BB17D057CC011
:100C78007F021214F97F327E00121BB1785DE2FD0B
:100C8800FF7858E2F208E24FF2785CE2B404167892
:100C980058E2F208E2440CF208E25402F208E4F2E4
:100CA800FB7F03801B785CE2FD75F004A4FF785895
:100CB800E245F0F208E24FF2AF05785DE2FD7B0114
:100CC8001210AA7809E2FE08E2FF121633EF78063E
:100CD800C333CE33CED8F9FF7858E24EFE08E24F40
:100CE800FF18EEF208EFF24410FF18EEF2FC08EFDE
:100CF800F2FD7F031214F97806E2FF7488FCEF44D2
:100D0800A0FD7F051214F9E4FDFC7F061214F978A2
:0B0D18005AE2FC08E2FD7F070214F91C
:0D1C1A007F0A1215E7EE5403FE1216CA22CF
:101713001216337859EEF208EFF27F031215E7AD94
:10172300077C00ED543FFD7859E25403FE08E2784C
:1017330006C333CE33CED8F9FFEC4EFCED4F441045
:10174300FD7F031214F97F0A1215E7EE30E6F77FE7
:041753000A021B90DB
:091C55007F051215E7EE540FFFA4
:011C5E002263
:041A81007857EFF2B1
:101A85007F051215E7AD07AC06EC54F0FC7857E27C
:071A95004CFC7F050214F96F
:040F70007859EFF2CB
:100F74007F031215E7785AEEF208EFF254EFFF18E8
:100F8400EEF2FC08EFF2FD7F031214F97F02121552
:100F9400E7785AEEF208EFF27859E2B4010608E273
:100FA40044028005785AE254FDF208E2F2785AE2EB
:100FB4004401F208E2F230000A18E2F208E2547F37
:100FC400F28009785AE2F208E24480F2785AE2FCAC
:100FD40008E2FD7F021214F97F0A1215E7EE20E6FB
:100FE400097F0A7E00121BB180EE121C1A785CEE97
:100FF400F208EFF27F021215E7785AEEF208EFF2E8
:0F100400EE54FEFE181214E8785CE2FE08E2FFDC
:0110130022BA
:0B1C4A00EF24FF920CD200120F70225A
:071C7A007F0B1215E7EE13CA
:011C81002240
:100D2300E47858F27817E2FE08E2FF780FEEF2FE5D
:100D330008EFF2FF7809EEF208EFF2D20C7F0A1205
:100D43001B907817E2FE08E2FF1217137F327E0032
:100D5300121BB112199F7819E2FE08E2FFC3780A49
:100D6300E29F18E29E5042C2007F01120F70780981
:100D7300EEF208EFF27FF47E01121BB17F0A121527
:100D8300E7EE20E524121C7A501A7FF47E01121B31
:100D9300B17858E2FF7809E2FC08E2FD12142C78DE
:100DA30058E204F2121C0D80AD7858E27011FF1264
:100DB3001C27E47809F208F27807F2780BF222781C
:100DC30058E2D394004003E214F27858E2FF121C75
:100DD30027E47807F2FF12197D7809EEF208EFF2A3
:0D0DE300780FEEF208EFF21217131218103D
:010DF00022E0
:041599007857EFF29E
:10159D00D3940F4003740FF2200D0D7F021215E747
:1015AD007858EE1214E8D20D7F051215E77858EE33
:1015BD00F208EFF254F0FF18EEF208EFF27857E26E
:1015CD00540FFDEF4DFF08EEF2FC08EFF2FD7F0525
:0915DD001214F97857E27806F2C5
:0115E60022E2
:101B58007F021215E7EE54BFFEC20DAD07FC7F02EF
:031B68000214F96B
:091C5F007F0B1215E7EEC313FF21
:011C68002259
:101BE1007F021215E7AC06EF54FEFD7F020214F9E5
:1010850081380098200000000000000000000000EA
:1010950000000000000000000000000000821E01AA
:0410A50090811D0019
:061C97007838E2FFE4F2E0
:011C9D002224
:101B7E0053B2C353B1C3C297C296C291C29075B04D
:021B8E00FF2234
:10038100E4FF121B7EFDED14600E14600F1460106B
:1003910024037015A2B3800AA2B28006A2B480021F
:1003A100A2B5E433783AF28005783A7401F2783AEA
:1003B100E26069ED75F006A42422F8E2604FE4F2F0
:1003C100ED75F006A42424F8E2600EE4F2ED75F078
:1003D10006A42425F8E4F28028ED75F006A4242073
:1003E100F8E2FA08E2FBD39414EA94004013D3EB49
:1003F10094E8EA9403500A781DE27005ED04783818
:10040100F2ED75F006A42423F8E4F27F01ED75F016
:1004110006A42420F8E4F208F20204B7ED75F00610
:10042100A42422F8E2703304F2ED75F006A424202E
:10043100F8E4F208F2ED75F006A42424F8E4F27869
:100441001DE26016ED75F006A42425F8E2700BEDAF
:1004510075F006A42424F87401F2ED75F006A424C5
:1004610021F9C3E394FF19E394FF5012ED75F006EF
:10047100A42420F808E22401F218E23400F2ED7518
:10048100F006A42421F9D3E394E819E39403402668
:10049100ED75F006A42423F8E2701B781DE27016B6
:1004A100ED04FE75F00AA42E7838F2ED75F006A47D
:1004B1002423F87401F20DED64046003020387EF55
:1004C1006039E4781DF20804F2087490F2E4FFFD4B
:1004D100ED75F006A42424F8E2600D7401A8050866
:1004E1008002C333D8FC4FFF0DEDB404E3EF600B82
:1004F100781DF2087401F2087490F2E4FFFEFDED3C
:1005010075F006A42422F8E2600E7401A8050880A3
:1005110002C333D8FC4FFF0E0DEDB404E2EEC394D9
:100521000250030205F4781DE2700CEFF208740129
:10053100F2087490F28016C3781FE294FF18E294D7
:10054100FF500A08E22401F218E23400F2D3781FC6
:10055100E2940818E2940250030205FFE4F9FCFD5D
:1005610074017E00A805088005C333CE33CED8F9C7
:10057100FF781DE2FBEF5B600EE97005ED04F98089
:1005810006EC7003ED04FC0DEDB404D4E9606FECEE
:10059100606CE9C39C5009E975F00AA42CFF80073F
:1005A100EC75F00AA429FF7838EFF2E4FD74017EBE
:1005B10000A805088005C333CE33CED8F9FF781DD6
:1005C100E2FBEF5B6021ED75F006A42424F87401D1
:1005D100F2ED75F006A42425F87401F2ED75F0062C
:1005E100A42423F87401F20DEDB404C1E4781EF2E1
:0E05F10008F222E4781DF20804F2087490F279
:0105FF0022D9
:101AB600538E7F5389F0438901758A66758CFCC203
:0A1AC6008DD28CD2A9D2A9D2AF2292
:101B6B00538EBF53890FE4F58B758DB8C28FD28E10
:031B7B00D2AB22C8
:031CAC00C28E22C3
:03000000021136B4
:0C113600787FE4F6D8FD75812102117D60
:10083B00E709F608DFFA8046E709F208DFFA803E9F
:10084B0088828C83E709F0A3DFFA8032E309F6088C
:10085B00DFFA8078E309F208DFFA807088828C83F4
:10086B00E309F0A3DFFA806489828A83E0A3F608A8
:10087B00DFFA805889828A83E0A3F208DFFA804C82
:10088B0080D280FA80C680D4806980F28033801059
:10089B0080A680EA809A80A880DA80E280CA8033C2
:1008AB0089828A83ECFAE493A3C8C582C8CCC5833A
:1008BB00CCF0A3C8C582C8CCC583CCDFE9DEE7800A
:1008CB000D89828A83E493A3F608DFF9ECFAA9F089
:1008DB00EDFB2289828A83ECFAE0A3C8C582C8CCDF
:1008EB00C583CCF0A3C8C582C8CCC583CCDFEADEF8
:1008FB00E880DB89828A83E493A3F208DFF980CC5A
:10090B0088F0EF60010E4E60C388F0ED2402B40452
:10091B000050B9F582EB2402B4040050AF232345F9
:06092B00822390088B738B
:10093100F8BB010DE58229F582E5833AF583E8F0FC
:10094100225006E92582C8F622BBFE05E92582C8A8
:02095100F22290
:10095300EF8DF0A4A8F0CF8CF0A428CE8DF0A42EB8
:02096300FE2272
:10096500BC000BBE0029EF8DF084FFADF022E4CC76
:10097500F875F008EF2FFFEE33FEEC33FCEE9DEC3F
:10098500984005FCEE9DFE0FD5F0E9E4CEFD22ED85
:10099500F8F5F0EE8420D21CFEADF075F008EF2FCF
:1009A500FFED33FD4007985006D5F0F222C398FDC0
:0509B5000FD5F0EA225D
:10002600E508245DF8E2050822785A300702785D73
:10003600E475F001120A120209BA2000EB7F2ED2F3
:10004600008018EF540F2490D43440D4FF30040BB2
:10005600EF24BFB41A0050032461FFE509600215BE
:1000660009050CE50C7002050B30070D785AE4758E
:10007600F001120A12EF020A00021C9E7403D20754
:100086008003E4C207F508785A120A22E4F509F556
:100096000BF50CE50960077F2012006180F5750AF3
:1000A600FFC201C200C202C203C205C206C20812D2
:1000B600002FFF700D3007057F00120072AF0CAEE7
:1000C6000B22B4255FC2D5C20412002FFF24D0B480
:1000D6000A00501A75F00A780930D50508B6FF01EE
:1000E60006C6A426F620D5047002D20380D924CFF2
:1000F600B41A00EF5004C2E5D204020271D20180A4
:10010600C6D20080C0D20280BCD2D580BAD20580C9
:10011600B47F201200612002077401B5090040F186
:10012600120026FF120061020099D208D2068095BD
:10013600120026FB120026FA120026F94A4B700618
:1001460079427A037BFF20022EE509602A7E008E23
:10015600827583001209D360060EEE650A70F0C23E
:10016600D5EBC0E0EAC0E0E9C0E0EE1202B8D0E0AC
:10017600F9D0E0FAD0E0FB1209BAFF60AAEBC0E0C2
:10018600EAC0E0E9C0E0120061D0E02401F9D0E065
:100196003400FAD0E0FBE50A0460DCD50AD9808792
:1001A6007BFF7A0279B4D202809C791080027908AA
:1001B600C206C2088008D2D5790A8004790AC2D557
:1001C600E50A047002F50AE4FAFDFEFF120026FCB9
:1001D6007B08200113120026FD7B1030000A120056
:1001E60026FE120026FF7B20EC3382D592D55013D3
:1001F600C3E43000069FFFE49EFEE42001039DFD5C
:10020600E49CFCE4CBF8C201EC700CCFCECDCCE87C
:1002160024F8F870F38017C3EF33FFEE33FEED33A7
:10022600FDEC33FCEB33FB994002FB0FD8E9EB30D6
:100236000105F8D0E0C448B201C0E00AEC4D4E4FCB
:1002460078207B0070C2EAB50A0040BCC0E012020A
:10025600BAD0F0D0E0200104C4C0E0C4B201C0F0BE
:1002660012004AD0F0D5F0EB020099120A2B0136A3
:100276005301B05801074C01034201B44F01BC447D
:1002860001BC49011C4301C25501A64601A6450110
:01029600A6C1
:1002970047036250010B2D010F2E01322B0113234F
:1002A700013020034B2A00CB480000012A3F3F3F83
:1002B70000790AA2D5200314300509B910020404F5
:1002C700B9080104A2D52006025001042002689251
:1002D70002B509005034C0E07F203003197F30A2F7
:1002E7000272067205500F120311C202C206C2053E
:1002F700C2087F30800F300503E9C0E0120061308B
:100307000503D0E0F9D0E0B509CC3005177F30B947
:10031700100C1200617F583004077F788003B908FA
:10032700031200613002057F2D0200617F20200843
:10033700F87F2B2006F322920280CF286E756C6C13
:100347002900D2011200263001F8C201780930D500
:100357000108F60200CB2D5043495812002624030A
:10036700B405004001E490035D93120052743A1201
:0A0377000052D2037509040201B020
:101142000212A5E493A3F8E493A34003F68001F20C
:1011520008DFF48029E493A3F85407240CC8C333AE
:10116200C4540F4420C8834004F456800146F6DF7D
:10117200E4800B0102040810204080901014E47EE9
:10118200019360BCA3FF543F30E509541FFEE49372
:10119200A360010ECF54C025E060A840B8E493A339
:1011A200FAE493A3F8E493A3C8C582C8CAC583CA64
:1011B200F0A3C8C582C8CAC583CADFE9DEE780BE1C
:0110A9000046
:1009BA00BB010689828A83E0225002E722BBFE023B
:0909CA00E32289828A83E493226E
:1009D300BB010CE58229F582E5833AF583E02250D9
:1009E30006E92582F8E622BBFE06E92582F8E22223
:0D09F300E58229F582E5833AF583E493223D
:100A0000BB010689828A83F0225002F722BBFE01D5
:020A1000F322CF
:100A1200FAE2FB0808E2F925F0F218E2CA3AF222F9
:090A2200EBF208EAF208E9F22205
:100A2B00D083D082F8E4937012740193700DA3A35A
:100A3B0093F8740193F5828883E47374029368606E
:060A4B00EFA3A3A380DF6E
:00000001FF
