:0418B600000000220C
:0F17A60000000075080B7509BED509FDD508FABE
:0117B5002211
:1017B600EF1FAC0670011E4C60051217A680F122C1
:1017C600EF1FAC0670011E4C60051218B680F122A0
:030BE70081030087
:08000300D20512153CC20A22CD
:1002A500784CEFF21218217800E2FFD3940A50033C
:1002B50002038D784CE26401702BEFB40B1A12180F
:1002C5005C780FEFF2BF0F04E4F28005780FE204CB
:1002D500F2780FE2FF1216D77800E2641560030288
:1002E50004830214867800E2FFD3940A4032784CE6
:1002F500E26402702BEFB40B1A12185C780FEFF260
:100305007005740FF28005780FE214F2780FE2FFA2
:100315001216D77800E2641560030204830214B450
:100325007800E2FFD3940A4015784CE2B4030FEF4E
:10033500B41504E47803F2E4FF1216318045780021
:10034500E2FFD3940A5003020483784CE26404600C
:1003550003020483EFB40B031206037800E2B4151D
:1003650022780EE2D39400401278037401F2E47807
:1003750001F208F21217817F018005E47803F2FF8C
:10038500121631E47800F222784CE2B40C0302181C
:100395008B784CE2B40D1012185C780FEFF27800F0
:1003A500740BF27F658022784CE2B40B10780074F0
:1003B50015F2E47803F21218BE7F66800C784CE2E1
:1003C500B40E09B200D2017F05021631784CE2B4B1
:1003D50021047F018008784CE2B42C0DE4FF12184B
:1003E500517806EEF208EFF222784CE2B416087F57
:1003F50004121631021510784CE2B4011E7F041266
:1004050016317804E2FF2401FDE433FCC3ED9410BA
:10041500EC648094805067EF048016784CE2B40257
:10042500147F041216317804E2FFD39400404FEF95
:1004350014FF0214E2784CE2640370157808E2FFB9
:100445007805E2B50704E4F280207805E204F2803D
:1004550019784CE2640470267805E270087808E2A1
:100465007805F280057805E214F27805E2FF1215A9
:0F047500B1780CEEF208EFF21212EA1200032235
:1013E700C2061218BE120EE49206E47800F2780ED6
:1013F700741EF212170CD2AFE47803F2120D8412A6
:1014070018213006030206037806E2FF08E2780C8B
:0A141700CFF208EFF27F0A1216313F
:0114210022A8
:100E770012187A802D300B171218707813EFF27F43
:100E87000212163178117403F20874E8F2C20B12D9
:100E970018A9784BEFF27803E2B4020B784BE2B46F
:100EA7002CD31213E780CE7803E2B4011D780EE24B
:100EB700C39401501578037402F21218BE1217E694
:100EC700C297C296C291C29080AB784BE2FF600393
:0D0ED7001202A5300A9F12153CC20A809835
:03000B00020B44A1
:100B4400C0E0C0F0C083C082C0D075D000C000C077
:0D0B540001C002C003C004C005C006C007F8
:100B610012001E7831EFF21200267803E2C39402DC
:100B710050511212565002804A7831E2FF640A60E5
:100B810026EFC39464503C781108E22401FFF21867
:100B9100E23400FEF2C3EF94D0EE940740257F0AC1
:100BA100121631D20A801C300019781108E2240192
:100BB100FFF218E23400FEF2C3EF94D0EE94074046
:0B0BC10002D20B758A66758CFCC28D99
:100BCC00D007D006D005D004D003D002D001D0007D
:0B0BDC00D0D0D082D083D0F0D0E03227
:03001B0002132E9F
:10132E00C0E0C0D075D000C000C006C0077803E290
:10133E00B40122780108E22401FFF218E23400FE23
:10134E00F2C3EF94B8EE940B400B780EE214F278E1
:10135E0001E4F208F2D007D006D000D0D0D0E032AF
:0818830000000000000000005D
:100BEA00810405C100820621FC810500810800C13B
:070BFA0005C102C104C101A5
:071422007854EEF208EFF22E
:10142900087C007DFE7BFF7A1879837E007F02129B
:1014390005547854E2FE08E2FF7BFE7A00795612E1
:0B144900119F7856E2FE08E2FDEDFF67
:011454002275
:0415B1007853EFF28A
:1015B500E275F002A42402FFE5F03406FE121422BF
:0D15C5007806EEF208EFF27853E27805F2B6
:0115D20022F6
:10168600784DEFF2E4FFFE121726784DE2FDE4FFF7
:0B169600FE12164E784DE27804F2229E
:071140007853EEF208EFF214
:10114700087C007DFE7BFF7A1879857E007F02127E
:1011570005547853E2FC08E2FDEC08F208EDF27F53
:10116700007E021217267855E2FD7F007E021216D6
:101177004E7856E2FD7F017E0212164E7805E2FD9B
:10118700F460077402FFFE12164E7853E2FF08E27E
:071197007806CFF208EFF229
:01119E00222E
:1015F4007F007E04121726A203E433FD7F007E04DD
:0F16040012164EA200E433FD7F027E0402164E42
:10153C0030050C7806E2FE08E2FF121140C20530BD
:10154C0002097804E2FF121686C20220040330015D
:09155C00071215F4C204C20122B9
:07189B007F007E0602172604
:0A0D01007853EFF208ECF208EDF26F
:100D0B0078587C007DFE7BFF7A1879877E007F0206
:100D1B00120554785A7C007DFE7BFF7A1879897E08
:100D2B00007F021205547854E2FC08E2FDEC785A7D
:100D3B00F208EDF27853E275F002A42402FFE5F01D
:100D4B003406FE7856F208EFF2785AE2FD12164E90
:100D5B007F047E001217B67857E22401FF18E234A5
:100D6B0000FE785BE2FD12164E7856E2FE08E2FFBB
:090D7B007BFE7A00795802119FF9
:0C182E007808EFF2FD7F007E0602164EE7
:100EE400E4FFFE1216A17804EFF2D3940F40047FBE
:100EF4000180027F007804E2C3940050047E0180E4
:100F0400027E00EE4F600578047405F27F007E04D3
:100F14001216A1EF1392037F027E041216A1EF139F
:100F240092007F007E061216A17808EFF2BFFF023E
:100F3400D3227F007E021214227806EEF208EFF22A
:0D0F44007402FFFE1216A17805EFF2C32221
:0D000E00E4F5C7F5C5F5C675C380F5C4223D
:1017260075C78075F50C75C5038FC4EEF5C375C610
:081736005A75C6A50002000E61
:1016A10075C78075F50C75C5018FC4EEF5C375C698
:0A16B1005A75C6A500AFC212000E64
:0116BB00220C
:10119F00785CEEF208EFF208EBF208EAF208E9F2F7
:1011AF0075C78075F50C75C501E408F27861E2FF2B
:1011BF00C394035035785DE22FFF18E23400AD077A
:1011CF00FC8DC4F5C375C65A75C6A50000785EE2DE
:1011DF00FB08E2FA08E2F908E2F582758300E5C23E
:0D11EF0012057A7861E204F280C202000E5F
:10164E0075C78075F50C75C5028FC4EEF5C3AF0571
:0C165E008FC275C65A75C6A50002000EAA
:09187A00E4F5CAF5C975BA902223
:0718A2007F0A7E000217C659
:0F17F600D2CCD2CD1218A2C2CC1218A2C2CD22D0
:0C183A00C2CCD2CD1218A2D2CC0218A24F
:1017D600EF24FF92CC1218A2D2CD1218A2C2CD22AB
:10175500D2CC1218A2D2CD1218A2A2CC9209C2CD17
:05176500A209E433FFBE
:01176A00225C
:04136E007865EFF2BD
:10137200087408F27866E2FF14F2EF601E18E23099
:10138200E704D2CC8002C2CC1218A2D2CD1218A28B
:10139200C2CD7865E2FF25E0F280D9121755EF241D
:0813A200FF9208A208E433FFEA
:0113AA002220
:0413AB007865EFF280
:1013AF00087408F2E408F2D2CC7866E2FF14F2EF88
:1013BF00601A08E2FF25E0F2D2CD1218A230CC0558
:1013CF007867E204F2C2CD1218A280DD7865E2FFE1
:0713DF001217D67867E2FF48
:0113E60022E4
:100C01005C0075C0F9A4B0999282F880907F8883C6
:100C1100C6A1868E8CC1CE9189C712C8ABF7BF4DD4
:100C21000068407924301912027800107FC7898248
:100C31000C21FC82110000811006811300810F003C
:0C0C4100810E1EC18C820A1F4081090038
:0D18140053913C4392C3E4F5B175B2FF223D
:1016BC00ED4C600A74682FF582E434008008747570
:0B16CC002FF582E43400F583E0FF22DC
:10158D00783BE4300306F20874158004F2087416F3
:10159D00F208E4F20874FFF2FB7A00FD7C007F177D
:0415AD0012097E227F
:040A9400AB07AA06FC
:100A98007C277D101205AE7834EFF27C277D10AFED
:100AA80003AE021205AE7E037FE8CFCDCFCECCCE0B
:100AB8001205AE7833EFF27C037DE8AF03AE021285
:100AC80005AE7E007F64CFCDCFCECCCE1205AE78FA
:100AD80032EFF2AE02AF037C007D641205AE7E00F9
:100AE8007F0ACFCDCFCECCCE1205AE7835EFF21837
:100AF800E2C39401502018E2FD7C0018E2FB7A0062
:100B08007835E2FF783BE4F208EFF208E4F2087483
:100B180003F27F6480227834E2FF18E2FD7C00183B
:100B2800E2FB7A007835E2F582783BE4F208E58268
:0B0B3800F208E4F2087403F212097ED8
:010B4300228F
:10101E007806E2FC08E2FD780CE2FE08E2FFB50578
:10102E0006EEB504028046300C1F780DE22401F264
:10103E0018E23400F2D308E2943018E2942A4026E3
:10104E007421F20874FCF2801D780DE224FFF21870
:10105E00E234FFF2C308E294FC18E29421500774C4
:10106E002AF2087430F2780CE2FE08E2FF120A94BB
:01107E00224F
:101565007804E2FF75F00A84FD7C00EF75F00A84CB
:10157500E5F0FB7A00783BE4F20874FFF208E4F248
:081585000874FFF2FF02097E69
:1010E0007813E2FF75F06484FEEF75F06484E5F038
:1010F00075F00A847833F27813E275F00A84783256
:10110000E5F0F2EE601BFD7C0008E2FB7A0018E2DD
:10111000FF783BE4F208EFF208E4F20874FFF28093
:101120001A7833E2FB7A0018E2FF783BE4F208EF2A
:0F113000F208E4F20874FFF2FD7C00FF12097E62
:01113F00228D
:10145500780FE2FF75F00A84A9F0EF75F06484E572
:10146500F075F00A84FB7A00AF01783BE4F208EFEF
:10147500F208E4F20874FFF27D197C007F17020977
:011485007EE8
:10107F00780EE2FF75F06484FEEF75F06484E5F09E
:10108F0075F00A847833F2780EE275F00A847832BC
:10109F00E5F0F2EE601BFD7C0008E2FB7A0018E23F
:1010AF00FF783BE4F208EFF208E4F20874FFF280F5
:1010BF001A7833E2FB7A0018E2FF783BE4F208EF8C
:1010CF00F208E4F20874FFF2FD7C007F1612097E2D
:0110DF0022EE
:10173E00E4783BF208F208F20874FFF27B187A00A4
:07174E00FD7C00FF02097E93
:1016F200783BE4F208741AF208E4F20874FFF27B11
:0A1702001A7A00FD7C00FF02097E48
:10161300A200E4FF33783BCFF208EFF208E4F208CC
:0E16230074FFF2FB7A00FD7C007F1702097E47
:10166A00783BE4F208741BF208E4F20874FFF27B98
:0C167A001B7A007D1B7C007F1B02097E98
:100E0000A907E97016D3784AE29DEC6480F5F018E2
:100E1000E2648095F04002D322C322E9B40116D3E4
:100E2000784AE29BEA6480F5F018E2648095F0402D
:100E300002D322C322E9B4021C7849E2FE08E2FF91
:100E4000C37846E29FEE6480F5F018E2648095F086
:100E5000500122C322E9B4031C7849E2FE08E2FFF4
:100E6000C37848E29FEE6480F5F018E2648095F064
:070E7000500122C322C3223E
:10097E007836EFF208ECF208EDF208EAF208EBF244
:10098E00783F741CF27809E2FF7836E2FD7C0008AD
:10099E00E2FA08E2FB08E2F58308E2F5827845E523
:1009AE0083F208E582F2783BE2F58308E2F582787D
:1009BE0047E583F208E582F2783FE2F5827849E472
:1009CE00F208E582F2120E00400E7809E204F2D32C
:1009DE00940340B1E4F280ADC297C296C291C29028
:1009EE001218147809E2701F7836E2FF783EE2643E
:1009FE0001700218E27005FC7D0180047C007D0010
:100A0E001216BC8FB0D2977809E2B401207837085D
:100A1E00E2FF783EE26402700218E27005FC7D018E
:100A2E0080047C007D001216BC8FB0D2967809E24D
:100A3E00B40220783908E2FF783EE26403700218AF
:100A4E00E27005FC7D0180047C007D001216BC8FD7
:100A5E00B0D2917809E2B40320783B08E2FF783EE9
:100A6E00E26404700218E27005FC7D0180047C00D3
:100A7E007D001216BC8FB0D2907809E204F2D394A6
:050A8E00034002E4F248
:010A93002240
:1011FC007810E2B40A0312101E7810E27003121673
:10120C00F27810E2B4010312173E7810E2B4020334
:10121C001210E07810E2B4030312158D7810E2B4CA
:10122C0004031215657810E2B40503121613781036
:10123C00E2B4060312166A7810E2B4650312145570
:0A124C007810E2B4660312107F224E
:08188B007F03121631B20322A3
:0D182100200309780A741FF2087440F222B7
:101256002003087810E2D3946440051211FC80390B
:10126600D3780BE2940A18E2940040101211FC782D
:101276000BE224FFF218E234FFF2801D780BE264E1
:1012860005700218E26010780AE4F2087405F2C2EA
:0B12960097C296C291C290D322C322DF
:10163100E47811F208F27810E26F6010EFB404025E
:0D164100D202EFB40302D2047810EFF222BF
:05001E007810E2FF2252
:10148600780EE2FFC394145006E22405F2801AEFA8
:10149600C3943C5008780EE2240AF2800CEFC39401
:0E14A600E65006780EE22414F27F660216313C
:1014B400780EE2FFD3943C4006E224ECF2801AEF6B
:1014C400D394144008780EE224F6F2800CEFC3940F
:0E14D400054006780EE224FBF27F6602163118
:10176B00759850438E01538EFB75D7FE75D6FF438C
:06177B008E1053A23F2274
:081893008F993099FDC29922E2
:0618B000AE07121893229E
:030023000218467A
:0B184600309902C299309802C298321B
:0418BA00000000002A
:030C4D008114000F
:0A12A1007858EFF208ECF208EDF2C5
:1012AB00087C007DFE7BFF7A1879BA7E007F0212E4
:1012BB0005547859E2FC08E2FDEC08F2ED08F21255
:1012CB0017F67F2212136E7858E2FF12136E785BBB
:0F12DB00E2FF12136E785CE2FF12136E02183AF4
:100FBA00EEF208EFF2E408F208F208F208F208F298
:080FCA0008F208F208F27F03AF
:040FD2007862EFF260
:100FD600087C007DFE7BFF7A1879BC7E007F0212BA
:100FE60005541217F67F2212136E7862E2FF12136F
:100FF6006E1217F67F2312136EE4FF1213AB78639B
:10100600EFF27F011213AB7864EFF212183A7863AD
:07101600E2FE08E2FDEDFF20
:01101D0022B0
:100D84007F2C7E011217B67D037C007F021212A114
:100D94007F327E001217B67D057CC07F021212A13D
:100DA4007F327E001217B67807E22404FF18E2347B
:100DB400DEFE7C007D0A1205AEEF7806C333CE3327
:100DC400CED8F9AC064410FD7F031212A17804E2D8
:100DD400FF7486FCEF44A0FD7F051212A1E4FDFC24
:100DE4007F061212A17D1A7C5F7F071212A178067A
:0C0DF400E2FF08E2780CCFF208EFF222D8
:020865007858C1
:10086700120FBA7E00EF540C7802CEC313CE13D802
:10087700F9FF7860EEF208EFF24E700A785A7421A9
:10088700F20874FC802D7860E2FE08E2FF64014EF6
:100897007013785A741DF20874B0F2087423F208C2
:1008A700748CF28043EF64024E7013785A741DF211
:1008B7000874B0F208742AF2087430F2802AEF64E0
:1008C700034E70747F07120FD2EEC313785A30E0CD
:1008D700087419F208746480067413F2087488F2B5
:1008E70008741DF20874B0F27F03120FD27E00EF76
:1008F7005403FF7860EEF208EFF27009785EF208B1
:10090700740AF280357860E2FE08E2FF64014E70F7
:1009170009785EF2087414F28020EF64024E7009C1
:10092700785EF2087405F28011EF64034E7009785F
:100937005EF2087402F280028024785AE2FC08E230
:10094700FD7858E2FA08E2FBC39DEA9C5002800E4C
:10095700785CE2FE08E2FFD3EB9FEA9E4004E4FEE8
:10096700FF22C37859E29DFF18E29CFE785EE2FC05
:0609770008E2FD1205AECE
:01097D002257
:020744007856E5
:10074600120FBA7E00EF540C7802CEC313CE13D824
:10075600F9FF785EEEF208EFF24E700A78587421CF
:10076600F20874FC802D785EE2FE08E2FF64014E1A
:1007760070137858741DF20874B0F2087423F208E6
:10078600748CF28043EF64024E70137858741DF235
:100796000874B0F208742AF2087430F2802AEF6402
:1007A600034E70747F07120FD2EEC313785830E0F1
:1007B600087419F208746480067413F2087488F2D7
:1007C60008741DF20874B0F27F03120FD27E00EF98
:1007D6005403FF785EEEF208EFF27009785CF208D7
:1007E600740AF28035785EE2FE08E2FF64014E701C
:1007F60009785CF2087414F28020EF64024E7009E6
:10080600785CF2087405F28011EF64034E70097883
:100816005CF2087402F28002803C785CE2FC08E23A
:10082600FD7856E2FE08E2FF12059C7858E2FC08C5
:10083600E2FD2FFFEC3EFE785EF208EFF2C3785B36
:10084600E29F18E29E5002800D785EE2FA08E2FB13
:0E085600C39DEA9C5004E4FEFF22AF03AE02F5
:010864002271
:0E180500E4FE7F0A120FD2EE5403FE120744D7
:0118130022B2
:1012EA001208657856EEF208EFF27F03120FD2ADBC
:1012FA00077C00ED543FFD7856E25403FE08E2787D
:10130A0006C333CE33CED8F9FFEC4EFCED4F441072
:10131A00FD7F031212A17F0A120FD2EE30E6F77F89
:04132A000A0216316C
:09185C007F05120FD2EE540FFFBC
:011865002260
:0416D700784DEFF269
:1016DB007F05120FD2AD07AC06EC54F0FC784DE24F
:0716EB004CFC7F050212A177
:040F51007853EFF2F0
:100F55007F03120FD2EF54EFFDAC067F031212A1EF
:100F65007F02120FD27853E2B40106EE4402FE80EE
:100F750004EE54FDFEEE4401FEEF300705547FFFFD
:100F850080034480FFAD07AC067F021212A17F0AE1
:100F9500120FD2EE20E6097F0A7E001217B680EE08
:100FA5001218057854EEF208EFF21212EA7854E2BC
:040FB500FE08E2FF51
:010FB9002215
:0B185100EF24FF920CD207120F51226F
:091866007F0B120FD2EE5401FFBA
:01186F002256
:10060300E4784DF208F2FE7F03120FD27E00EF541E
:100613000C7802CEC313CE13D8F9FF4E700A784F6D
:100623007421F20874FC8027EF64014E7013784F35
:10063300741DF20874B0F2087423F208748CF2800B
:1006430046EF64024E7013784F741DF20874B0F2D3
:1006530008742AF2087430F2802DEF64034E6003AD
:100663000207437F07120FD2EEC313784F30E0081F
:100673007419F208746480067413F2087488F2081B
:10068300741DF20874B0F2784FE2FE08E2FF780CB2
:10069300EEF2FE08EFF2FF7806EEF208EFF2D20C6C
:1006A3007F0A121631784FE2FE08E2FF1212EA7F48
:1006B300327E001217B612189B7851E2FE08E2FF51
:1006C3007807E26F700318E26E6041C2077F011280
:1006D3000F517806EEF208EFF27FF47E011217B69F
:1006E300121866EF60217FF47E011217B6784D0869
:1006F300E2FF7806E2FC08E2FD120D01784EE224E7
:1007030001F218E23400F212182180AD784EE2248F
:10071300FFF218E234FFF208E2FF12182EE4780524
:10072300F2FF1215B17806EEF208EFF2780CEEF252
:1007330008EFF21212EA7806E2FE08E2FF12114015
:010743002293
:0414E200784DEFF260
:1014E6007F05120FD2EF54F0FF784DE2540FFDEF57
:1014F6004DFDAC067F051212A1784DE27804F27814
:0915060014E270057F011215D3F7
:01150F0022B9
:0415D300784EEFF26D
:1015D7007F02120FD2784EE26006EE4440FE80048E
:0D15E700EE54BFFEAD07AC067F020212A15C
:101510007F02120FD2AD07AC06ECC413135403F4D0
:101520005401600BEC4440FC78147401F28008EC28
:0C15300054BFFCE47814F27F020212A108
:091870007F0B120FD2EEC313FF2F
:01187900224C
:1017E6007F02120FD2AC06EF54FEFD7F020212A159
:100C50008130009818000000000000000000000033
:100C600000000000000000000000000000821601EB
:040C7000908115005A
:0618A9007830E2FFE4F2DA
:0118AF002216
:1017940053B2C353B1C3C297C296C291C29075B03B
:0217A400FF2222
:10002600E4FF121794FDED14600E14600F146010B7
:1000360024037015A2B3800AA2B28006A2B480027D
:10004600A2B5E4337832F2800578327401F2783260
:10005600E26069ED75F006A4241AF8E2604FE4F256
:10006600ED75F006A4241CF8E2600EE4F2ED75F0DE
:1000760006A4241DF8E4F28028ED75F006A42418E1
:10008600F8E2FA08E2FBD39414EA94004013D3EBA7
:1000960094E8EA9403500A7815E27005ED04783086
:1000A600F2ED75F006A4241BF8E4F27F01ED75F07D
:1000B60006A42418F8E4F208F202015CED75F006D5
:1000C600A4241AF8E2703304F2ED75F006A424189D
:1000D600F8E4F208F2ED75F006A4241CF8E4F278D0
:1000E60015E26016ED75F006A4241DF8E2700BED1E
:1000F60075F006A4241CF87401F2ED75F006A4242C
:1001060019F9C3E394FF19E394FF5012ED75F00655
:10011600A42418F808E22401F218E23400F2ED757E
:10012600F006A42419F9D3E394E819E394034026CE
:10013600ED75F006A4241BF8E2701B7815E2701624
:10014600ED04FE75F00AA42E7830F2ED75F006A4E3
:10015600241BF87401F20DED6404600302002CEF19
:100166006039E47815F20804F2087490F2E4FFFDB1
:10017600ED75F006A4241CF8E2600D7401A80508CC
:100186008002C333D8FC4FFF0DEDB404E3EF600BE0
:100196007815F2087401F2087490F2E4FFFEFDEDA2
:1001A60075F006A4241AF8E2600E7401A80508800A
:1001B60002C333D8FC4FFF0E0DEDB404E2EEC39438
:1001C6000250030202997815E2700CEFF2087401EE
:1001D600F2087490F28016C37817E294FF18E2943E
:1001E600FF500A08E22401F218E23400F2D378172D
:1001F600E2940818E2940250030202A4E4F9FCFD1A
:1002060074017E00A805088005C333CE33CED8F925
:10021600FF7815E2FBEF5B600EE97005ED04F980EF
:1002260006EC7003ED04FC0DEDB404D4E9606FEC4C
:10023600606CE9C39C5009E975F00AA42CFF80079D
:10024600EC75F00AA429FF7830EFF2E4FD74017E24
:1002560000A805088005C333CE33CED8F9FF78153C
:10026600E2FBEF5B6021ED75F006A4241CF8740137
:10027600F2ED75F006A4241DF87401F2ED75F00692
:10028600A4241BF87401F20DEDB404C1E47816F24F
:0E02960008F222E47815F20804F2087490F2DF
:0102A4002237
:10170C00538E7F5389F0438901758A66758CFCC2B0
:0A171C008DD28CD2A9D2A9D2AF223F
:10178100538EBF53890FE4F58B758DB8C28FD28EFE
:03179100D2AB22B6
:0318BE00C28E22B5
:03000000020C757A
:0C0C7500787FE4F6D8FD758121020CBCEC
:10048400E709F608DFFA8046E709F208DFFA803E5A
:1004940088828C83E709F0A3DFFA8032E309F60847
:1004A400DFFA8078E309F208DFFA807088828C83AF
:1004B400E309F0A3DFFA806489828A83E0A3F60863
:1004C400DFFA805889828A83E0A3F208DFFA804C3D
:1004D40080D280FA80C680D4806980F28033801014
:1004E40080A680EA809A80A880DA80E280CA80337D
:1004F40089828A83ECFAE493A3C8C582C8CCC583F5
:10050400CCF0A3C8C582C8CCC583CCDFE9DEE780C4
:100514000D89828A83E493A3F608DFF9ECFAA9F043
:10052400EDFB2289828A83ECFAE0A3C8C582C8CC99
:10053400C583CCF0A3C8C582C8CCC583CCDFEADEB2
:10054400E880DB89828A83E493A3F208DFF980CC14
:1005540088F0EF60010E4E60C388F0ED2402B4040D
:100564000050B9F582EB2402B4040050AF232345B4
:0605740082239004D47301
:10057A00F8BB010DE58229F582E5833AF583E8F0B7
:10058A00225006E92582C8F622BBFE05E92582C863
:02059A00F2224B
:10059C00EF8DF0A4A8F0CF8CF0A428CE8DF0A42E73
:0205AC00FE222D
:1005AE00BC000BBE0029EF8DF084FFADF022E4CC31
:1005BE00F875F008EF2FFFEE33FEEC33FCEE9DECFA
:1005CE00984005FCEE9DFE0FD5F0E9E4CEFD22ED40
:1005DE00F8F5F0EE8420D21CFEADF075F008EF2F8A
:1005EE00FFED33FD4007985006D5F0F222C398FD7B
:0505FE000FD5F0EA2218
:100C8100020E77E493A3F8E493A34003F68001F204
:100C910008DFF48029E493A3F85407240CC8C33374
:100CA100C4540F4420C8834004F456800146F6DF43
:100CB100E4800B0102040810204080900BE7E47EE1
:100CC100019360BCA3FF543F30E509541FFEE49338
:100CD100A360010ECF54C025E060A840B8E493A3FF
:100CE100FAE493A3F8E493A3C8C582C8CAC583CA2A
:100CF100F0A3C8C582C8CAC583CADFE9DEE780BEE2
:010C7400007F
:00000001FF
